{"contracts/SMS2FlowMachineRegistry.sol":{"SMS2FlowMachineRegistry":{"abi":[{"inputs":[{"internalType":"address","name":"adminAddress","type":"address"},{"internalType":"address","name":"operatorAddress","type":"address"}],"stateMutability":"nonpayable","type":"constructor"},{"inputs":[],"name":"AccessControlBadConfirmation","type":"error"},{"inputs":[{"internalType":"address","name":"account","type":"address"},{"internalType":"bytes32","name":"neededRole","type":"bytes32"}],"name":"AccessControlUnauthorizedAccount","type":"error"},{"inputs":[{"internalType":"uint256","name":"purchaseId","type":"uint256"}],"name":"AlreadyDispensed","type":"error"},{"inputs":[{"internalType":"uint256","name":"purchaseId","type":"uint256"}],"name":"AlreadyRefunded","type":"error"},{"inputs":[{"internalType":"uint256","name":"expected","type":"uint256"},{"internalType":"uint256","name":"received","type":"uint256"}],"name":"IncorrectPayment","type":"error"},{"inputs":[{"internalType":"uint256","name":"machineId","type":"uint256"},{"internalType":"uint256","name":"available","type":"uint256"},{"internalType":"uint256","name":"requested","type":"uint256"}],"name":"InsufficientMachineRevenue","type":"error"},{"inputs":[{"internalType":"uint256","name":"productId","type":"uint256"}],"name":"InsufficientStock","type":"error"},{"inputs":[{"internalType":"string","name":"machineCode","type":"string"}],"name":"MachineCodeAlreadyExists","type":"error"},{"inputs":[{"internalType":"uint256","name":"machineId","type":"uint256"}],"name":"MachineNotActive","type":"error"},{"inputs":[{"internalType":"uint256","name":"machineId","type":"uint256"}],"name":"MachineNotFound","type":"error"},{"inputs":[{"internalType":"address","name":"caller","type":"address"},{"internalType":"uint256","name":"machineId","type":"uint256"}],"name":"NotOwnerOrAdmin","type":"error"},{"inputs":[{"internalType":"uint256","name":"productId","type":"uint256"}],"name":"ProductNotActive","type":"error"},{"inputs":[{"internalType":"uint256","name":"productId","type":"uint256"}],"name":"ProductNotFound","type":"error"},{"inputs":[{"internalType":"uint256","name":"productId","type":"uint256"},{"internalType":"uint256","name":"machineId","type":"uint256"}],"name":"ProductNotInMachine","type":"error"},{"inputs":[{"internalType":"uint256","name":"purchaseId","type":"uint256"}],"name":"PurchaseNotFound","type":"error"},{"inputs":[],"name":"ReentrancyGuardReentrantCall","type":"error"},{"inputs":[],"name":"TransferFailed","type":"error"},{"inputs":[],"name":"ZeroAddress","type":"error"},{"anonymous":false,"inputs":[{"indexed":true,"internalType":"uint256","name":"purchaseId","type":"uint256"},{"indexed":false,"internalType":"address","name":"confirmedBy","type":"address"}],"name":"DispenseConfirmed","type":"event"},{"anonymous":false,"inputs":[{"indexed":true,"internalType":"uint256","name":"machineId","type":"uint256"},{"indexed":true,"internalType":"address","name":"owner","type":"address"},{"indexed":false,"internalType":"string","name":"machineCode","type":"string"},{"indexed":false,"internalType":"string","name":"location","type":"string"}],"name":"MachineRegistered","type":"event"},{"anonymous":false,"inputs":[{"indexed":true,"internalType":"uint256","name":"machineId","type":"uint256"},{"indexed":false,"internalType":"bool","name":"active","type":"bool"}],"name":"MachineStatusUpdated","type":"event"},{"anonymous":false,"inputs":[{"indexed":true,"internalType":"uint256","name":"productId","type":"uint256"},{"indexed":true,"internalType":"uint256","name":"machineId","type":"uint256"},{"indexed":false,"internalType":"string","name":"sku","type":"string"},{"indexed":false,"internalType":"string","name":"name","type":"string"},{"indexed":false,"internalType":"uint256","name":"priceWei","type":"uint256"},{"indexed":false,"internalType":"uint256","name":"stock","type":"uint256"}],"name":"ProductAdded","type":"event"},{"anonymous":false,"inputs":[{"indexed":true,"internalType":"uint256","name":"purchaseId","type":"uint256"},{"indexed":true,"internalType":"uint256","name":"machineId","type":"uint256"},{"indexed":true,"internalType":"uint256","name":"productId","type":"uint256"},{"indexed":false,"internalType":"address","name":"buyer","type":"address"},{"indexed":false,"internalType":"uint256","name":"amountPaid","type":"uint256"},{"indexed":false,"internalType":"string","name":"smsReference","type":"string"}],"name":"ProductPurchased","type":"event"},{"anonymous":false,"inputs":[{"indexed":true,"internalType":"uint256","name":"productId","type":"uint256"},{"indexed":false,"internalType":"uint256","name":"priceWei","type":"uint256"},{"indexed":false,"internalType":"uint256","name":"stock","type":"uint256"},{"indexed":false,"internalType":"bool","name":"active","type":"bool"}],"name":"ProductUpdated","type":"event"},{"anonymous":false,"inputs":[{"indexed":true,"internalType":"uint256","name":"purchaseId","type":"uint256"},{"indexed":true,"internalType":"address","name":"buyer","type":"address"},{"indexed":false,"internalType":"uint256","name":"amount","type":"uint256"}],"name":"PurchaseRefunded","type":"event"},{"anonymous":false,"inputs":[{"indexed":true,"internalType":"uint256","name":"machineId","type":"uint256"},{"indexed":true,"internalType":"address","name":"to","type":"address"},{"indexed":false,"internalType":"uint256","name":"amount","type":"uint256"}],"name":"RevenueWithdrawn","type":"event"},{"anonymous":false,"inputs":[{"indexed":true,"internalType":"bytes32","name":"role","type":"bytes32"},{"indexed":true,"internalType":"bytes32","name":"previousAdminRole","type":"bytes32"},{"indexed":true,"internalType":"bytes32","name":"newAdminRole","type":"bytes32"}],"name":"RoleAdminChanged","type":"event"},{"anonymous":false,"inputs":[{"indexed":true,"internalType":"bytes32","name":"role","type":"bytes32"},{"indexed":true,"internalType":"address","name":"account","type":"address"},{"indexed":true,"internalType":"address","name":"sender","type":"address"}],"name":"RoleGranted","type":"event"},{"anonymous":false,"inputs":[{"indexed":true,"internalType":"bytes32","name":"role","type":"bytes32"},{"indexed":true,"internalType":"address","name":"account","type":"address"},{"indexed":true,"internalType":"address","name":"sender","type":"address"}],"name":"RoleRevoked","type":"event"},{"inputs":[],"name":"DEFAULT_ADMIN_ROLE","outputs":[{"internalType":"bytes32","name":"","type":"bytes32"}],"stateMutability":"view","type":"function"},{"inputs":[],"name":"OPERATOR_ROLE","outputs":[{"internalType":"bytes32","name":"","type":"bytes32"}],"stateMutability":"view","type":"function"},{"inputs":[{"internalType":"uint256","name":"machineId","type":"uint256"},{"internalType":"string","name":"sku","type":"string"},{"internalType":"string","name":"name","type":"string"},{"internalType":"uint256","name":"priceWei","type":"uint256"},{"internalType":"uint256","name":"stock","type":"uint256"}],"name":"addProduct","outputs":[{"internalType":"uint256","name":"productId","type":"uint256"}],"stateMutability":"nonpayable","type":"function"},{"inputs":[{"internalType":"uint256","name":"purchaseId","type":"uint256"}],"name":"confirmDispense","outputs":[],"stateMutability":"nonpayable","type":"function"},{"inputs":[{"internalType":"uint256","name":"machineId","type":"uint256"}],"name":"getMachine","outputs":[{"components":[{"internalType":"uint256","name":"machineId","type":"uint256"},{"internalType":"address","name":"owner","type":"address"},{"internalType":"string","name":"machineCode","type":"string"},{"internalType":"string","name":"location","type":"string"},{"internalType":"bool","name":"active","type":"bool"},{"internalType":"uint256","name":"totalRevenue","type":"uint256"}],"internalType":"struct SMS2FlowMachineRegistry.Machine","name":"","type":"tuple"}],"stateMutability":"view","type":"function"},{"inputs":[{"internalType":"uint256","name":"machineId","type":"uint256"}],"name":"getMachineRevenue","outputs":[{"internalType":"uint256","name":"","type":"uint256"}],"stateMutability":"view","type":"function"},{"inputs":[{"internalType":"uint256","name":"productId","type":"uint256"}],"name":"getProduct","outputs":[{"components":[{"internalType":"uint256","name":"productId","type":"uint256"},{"internalType":"uint256","name":"machineId","type":"uint256"},{"internalType":"string","name":"sku","type":"string"},{"internalType":"string","name":"name","type":"string"},{"internalType":"uint256","name":"priceWei","type":"uint256"},{"internalType":"uint256","name":"stock","type":"uint256"},{"internalType":"bool","name":"active","type":"bool"}],"internalType":"struct SMS2FlowMachineRegistry.Product","name":"","type":"tuple"}],"stateMutability":"view","type":"function"},{"inputs":[{"internalType":"uint256","name":"machineId","type":"uint256"}],"name":"getProductsByMachine","outputs":[{"internalType":"uint256[]","name":"","type":"uint256[]"}],"stateMutability":"view","type":"function"},{"inputs":[{"internalType":"uint256","name":"purchaseId","type":"uint256"}],"name":"getPurchase","outputs":[{"components":[{"internalType":"uint256","name":"purchaseId","type":"uint256"},{"internalType":"uint256","name":"machineId","type":"uint256"},{"internalType":"uint256","name":"productId","type":"uint256"},{"internalType":"address","name":"buyer","type":"address"},{"internalType":"uint256","name":"amountPaid","type":"uint256"},{"internalType":"string","name":"smsReference","type":"string"},{"internalType":"bool","name":"dispensed","type":"bool"},{"internalType":"bool","name":"refunded","type":"bool"},{"internalType":"uint256","name":"createdAt","type":"uint256"}],"internalType":"struct SMS2FlowMachineRegistry.Purchase","name":"","type":"tuple"}],"stateMutability":"view","type":"function"},{"inputs":[{"internalType":"bytes32","name":"role","type":"bytes32"}],"name":"getRoleAdmin","outputs":[{"internalType":"bytes32","name":"","type":"bytes32"}],"stateMutability":"view","type":"function"},{"inputs":[{"internalType":"bytes32","name":"role","type":"bytes32"},{"internalType":"address","name":"account","type":"address"}],"name":"grantRole","outputs":[],"stateMutability":"nonpayable","type":"function"},{"inputs":[{"internalType":"bytes32","name":"role","type":"bytes32"},{"internalType":"address","name":"account","type":"address"}],"name":"hasRole","outputs":[{"internalType":"bool","name":"","type":"bool"}],"stateMutability":"view","type":"function"},{"inputs":[{"internalType":"uint256","name":"machineId","type":"uint256"},{"internalType":"uint256","name":"productId","type":"uint256"},{"internalType":"string","name":"smsReference","type":"string"}],"name":"purchaseProduct","outputs":[{"internalType":"uint256","name":"purchaseId","type":"uint256"}],"stateMutability":"payable","type":"function"},{"inputs":[{"internalType":"uint256","name":"purchaseId","type":"uint256"}],"name":"refundPurchase","outputs":[],"stateMutability":"nonpayable","type":"function"},{"inputs":[{"internalType":"string","name":"machineCode","type":"string"},{"internalType":"string","name":"location","type":"string"},{"internalType":"address","name":"machineOwner","type":"address"}],"name":"registerMachine","outputs":[{"internalType":"uint256","name":"machineId","type":"uint256"}],"stateMutability":"nonpayable","type":"function"},{"inputs":[{"internalType":"bytes32","name":"role","type":"bytes32"},{"internalType":"address","name":"callerConfirmation","type":"address"}],"name":"renounceRole","outputs":[],"stateMutability":"nonpayable","type":"function"},{"inputs":[{"internalType":"bytes32","name":"role","type":"bytes32"},{"internalType":"address","name":"account","type":"address"}],"name":"revokeRole","outputs":[],"stateMutability":"nonpayable","type":"function"},{"inputs":[{"internalType":"bytes4","name":"interfaceId","type":"bytes4"}],"name":"supportsInterface","outputs":[{"internalType":"bool","name":"","type":"bool"}],"stateMutability":"view","type":"function"},{"inputs":[{"internalType":"uint256","name":"machineId","type":"uint256"},{"internalType":"bool","name":"active","type":"bool"}],"name":"updateMachineStatus","outputs":[],"stateMutability":"nonpayable","type":"function"},{"inputs":[{"internalType":"uint256","name":"productId","type":"uint256"},{"internalType":"uint256","name":"priceWei","type":"uint256"},{"internalType":"uint256","name":"stock","type":"uint256"},{"internalType":"bool","name":"active","type":"bool"}],"name":"updateProduct","outputs":[],"stateMutability":"nonpayable","type":"function"},{"inputs":[{"internalType":"uint256","name":"machineId","type":"uint256"},{"internalType":"address payable","name":"to","type":"address"},{"internalType":"uint256","name":"amount","type":"uint256"}],"name":"withdrawMachineRevenue","outputs":[],"stateMutability":"nonpayable","type":"function"}],"evm":{"bytecode":{"linkReferences":{},"object":"60806040523480156200001157600080fd5b506040516200231f3803806200231f8339810160408190526200003491620001b7565b60017f9b779b17422d0df92223018b32b4d1fa46e071723d6817e2486d003becc55f00556001600160a01b038216620000805760405163d92e233d60e01b815260040160405180910390fd5b6001600160a01b038116620000a85760405163d92e233d60e01b815260040160405180910390fd5b620000b5600083620000eb565b50620000e27f97667070c54ef182b0f5858b034beac1b6f3089aa2d3188bb1e8929f4fa9b92982620000eb565b505050620001ef565b6000828152602081815260408083206001600160a01b038516845290915281205460ff1662000190576000838152602081815260408083206001600160a01b03861684529091529020805460ff19166001179055620001473390565b6001600160a01b0316826001600160a01b0316847f2f8788117e7eff1d82e926ec794901d17c78024a50270940304540a733656f0d60405160405180910390a450600162000194565b5060005b92915050565b80516001600160a01b0381168114620001b257600080fd5b919050565b60008060408385031215620001cb57600080fd5b620001d6836200019a565b9150620001e6602084016200019a565b90509250929050565b61212080620001ff6000396000f3fe60806040526004361061012a5760003560e01c80636a3341d3116100ab578063b9db15b41161006f578063b9db15b414610360578063d547741f1461038d578063eb4a39e0146103ad578063eb64d579146103cd578063f5b541a6146103e0578063faaac3901461040257600080fd5b80636a3341d3146102be5780636d3fac54146102de578063890a10b71461030b57806391d148541461032b578063a217fddf1461034b57600080fd5b8063248a9ca3116100f2578063248a9ca3146102015780632f2ff15d1461023157806336568abe146102515780633742a9f7146102715780633f5524be1461029e57600080fd5b806301db5b481461012f57806301ffc9a7146101625780630634a223146101925780631c77b27a146101b45780631eaed063146101d4575b600080fd5b34801561013b57600080fd5b5061014f61014a36600461197b565b610422565b6040519081526020015b60405180910390f35b34801561016e57600080fd5b5061018261017d366004611a04565b6105d8565b6040519015158152602001610159565b34801561019e57600080fd5b506101b26101ad366004611a4a565b61060f565b005b3480156101c057600080fd5b506101b26101cf366004611a82565b61080b565b3480156101e057600080fd5b506101f46101ef366004611a82565b6109eb565b6040516101599190611a9b565b34801561020d57600080fd5b5061014f61021c366004611a82565b60009081526020819052604090206001015490565b34801561023d57600080fd5b506101b261024c366004611adf565b610a56565b34801561025d57600080fd5b506101b261026c366004611adf565b610a81565b34801561027d57600080fd5b5061029161028c366004611a82565b610ab4565b6040516101599190611b55565b3480156102aa57600080fd5b506101b26102b9366004611a82565b610c37565b3480156102ca57600080fd5b506101b26102d9366004611c08565b610d09565b3480156102ea57600080fd5b506102fe6102f9366004611a82565b610d7d565b6040516101599190611c34565b34801561031757600080fd5b5061014f610326366004611cac565b610f48565b34801561033757600080fd5b50610182610346366004611adf565b611178565b34801561035757600080fd5b5061014f600081565b34801561036c57600080fd5b5061038061037b366004611a82565b6111a1565b6040516101599190611d30565b34801561039957600080fd5b506101b26103a8366004611adf565b61136c565b3480156103b957600080fd5b5061014f6103c8366004611a82565b611391565b61014f6103db366004611dab565b6113af565b3480156103ec57600080fd5b5061014f6000805160206120ab83398151915281565b34801561040e57600080fd5b506101b261041d366004611dfe565b611672565b60006000805160206120ab83398151915261043c8161170d565b61044589611717565b60028054600101908190556040805160e08101825282815260208082018d90528251601f8c0182900482028101820184528b8152939550909291830191908b908b9081908401838280828437600092019190915250505090825250604080516020601f8a018190048102820181019092528881529181019190899089908190840183828082843760009201829052509385525050506020808301889052604080840188905260016060909401849052868352600582529182902084518155908401519281019290925582015160028201906105209082611edb565b50606082015160038201906105359082611edb565b506080820151600482015560a0820151600582015560c0909101516006909101805460ff191691151591909117905560008981526008602090815260408083208054600181018255908452919092200183905551899083907f982cd1764d3c3f922523ee2e4abc3b6cee55b1da5d6a966aa60ce3b9a927fa5c906105c4908c908c908c908c908c908c90611fc4565b60405180910390a350979650505050505050565b60006001600160e01b03198216637965db0b60e01b148061060957506301ffc9a760e01b6001600160e01b03198316145b92915050565b610617611748565b61062083611717565b6001600160a01b0382166106475760405163d92e233d60e01b815260040160405180910390fd5b60006106538133611178565b6000858152600460205260409020600101549091506001600160a01b031633148115801561067f575080155b156106ab57604051631b7a9d6d60e31b8152336004820152602481018690526044015b60405180910390fd5b600085815260096020526040902054808411156106ec57604051630b42af7f60e21b81526004810187905260248101829052604481018590526064016106a2565b6000868152600960205260408120805486929061070a908490612001565b909155505060008681526004602052604081206005018054869290610730908490612001565b90915550506040516000906001600160a01b0387169086908381818185875af1925050503d8060008114610780576040519150601f19603f3d011682016040523d82523d6000602084013e610785565b606091505b50509050806107a7576040516312171d8360e31b815260040160405180910390fd5b856001600160a01b0316877f841fbab03327efe47fb7d133055c9aa87df38ff76b5919d1c190e0067c5e34b3876040516107e391815260200190565b60405180910390a35050505061080660016000805160206120cb83398151915255565b505050565b610813611748565b6000805160206120ab83398151915261082b8161170d565b61083482611764565b60008281526006602081905260409091209081015460ff161561086d57604051635c6cbc9960e01b8152600481018490526024016106a2565b6006810154610100900460ff161561089b576040516381fd8f2760e01b8152600481018490526024016106a2565b6004808201546003830154600184015460068501805461ff001916610100179055600081815260209490945260408420600501805493946001600160a01b0390931693919285926108ed908490612001565b909155505060008181526009602052604081208054859290610910908490612001565b90915550506040516000906001600160a01b0384169085908381818185875af1925050503d8060008114610960576040519150601f19603f3d011682016040523d82523d6000602084013e610965565b606091505b5050905080610987576040516312171d8360e31b815260040160405180910390fd5b826001600160a01b0316877f1fe2436d444ef52c0d011130d785e57a8055c6f9acb2981d8285ee6dd43a4676866040516109c391815260200190565b60405180910390a35050505050506109e860016000805160206120cb83398151915255565b50565b60606109f682611717565b60008281526008602090815260409182902080548351818402810184019094528084529091830182828015610a4a57602002820191906000526020600020905b815481526020019060010190808311610a36575b50505050509050919050565b600082815260208190526040902060010154610a718161170d565b610a7b8383611795565b50505050565b6001600160a01b0381163314610aaa5760405163334bd91960e11b815260040160405180910390fd5b6108068282611827565b610b1060405180610120016040528060008152602001600081526020016000815260200160006001600160a01b031681526020016000815260200160608152602001600015158152602001600015158152602001600081525090565b610b1982611764565b6000828152600660209081526040918290208251610120810184528154815260018201549281019290925260028101549282019290925260038201546001600160a01b031660608201526004820154608082015260058201805491929160a084019190610b8590611e53565b80601f0160208091040260200160405190810160405280929190818152602001828054610bb190611e53565b8015610bfe5780601f10610bd357610100808354040283529160200191610bfe565b820191906000526020600020905b815481529060010190602001808311610be157829003601f168201915b5050509183525050600682015460ff80821615156020840152610100909104161515604082015260079091015460609091015292915050565b6000805160206120ab833981519152610c4f8161170d565b610c5882611764565b60008281526006602081905260409091209081015460ff1615610c9157604051635c6cbc9960e01b8152600481018490526024016106a2565b6006810154610100900460ff1615610cbf576040516381fd8f2760e01b8152600481018490526024016106a2565b60068101805460ff1916600117905560405133815283907fd289d1f8c597a073a8bc28b2da81611ae40500385a521e8b192b2763d11d3d13906020015b60405180910390a2505050565b6000805160206120ab833981519152610d218161170d565b610d2a83611717565b600083815260046020818152604092839020909101805460ff1916851515908117909155915191825284917f1971b7b5c15250ae2448ed11ab243a59eb7aed73292444530bbc473ca60034489101610cfc565b610dc16040518060c001604052806000815260200160006001600160a01b031681526020016060815260200160608152602001600015158152602001600081525090565b610dca82611717565b600082815260046020908152604091829020825160c0810184528154815260018201546001600160a01b0316928101929092526002810180549293919291840191610e1490611e53565b80601f0160208091040260200160405190810160405280929190818152602001828054610e4090611e53565b8015610e8d5780601f10610e6257610100808354040283529160200191610e8d565b820191906000526020600020905b815481529060010190602001808311610e7057829003601f168201915b50505050508152602001600382018054610ea690611e53565b80601f0160208091040260200160405190810160405280929190818152602001828054610ed290611e53565b8015610f1f5780601f10610ef457610100808354040283529160200191610f1f565b820191906000526020600020905b815481529060010190602001808311610f0257829003601f168201915b5050509183525050600482015460ff161515602082015260059091015460409091015292915050565b60006000805160206120ab833981519152610f628161170d565b6001600160a01b038316610f895760405163d92e233d60e01b815260040160405180910390fd5b60078787604051610f9b929190612022565b908152602001604051809103902054600014610fce578686604051639862fb2360e01b81526004016106a2929190612032565b600180548101908190556040805160c0810182528281526001600160a01b0386166020808301919091528251601f8b0182900482028101820184528a8152939550909291830191908a908a9081908401838280828437600092019190915250505090825250604080516020601f890181900481028201810190925287815291810191908890889081908401838280828437600092018290525093855250506001602080850182905260409485018490528784526004815292849020855181559285015190830180546001600160a01b0319166001600160a01b03909216919091179055509082015160028201906110c59082611edb565b50606082015160038201906110da9082611edb565b50608082015160048201805460ff191691151591909117905560a0909101516005909101556040518290600790611114908a908a90612022565b908152602001604051809103902081905550826001600160a01b0316827fdc354f56d9a09d7916407e38cd780b18c1228608a7b83c30c7605332cbee0454898989896040516111669493929190612046565b60405180910390a35095945050505050565b6000918252602082815260408084206001600160a01b0393909316845291905290205460ff1690565b6111e36040518060e001604052806000815260200160008152602001606081526020016060815260200160008152602001600081526020016000151581525090565b6111ec82611892565b600560008381526020019081526020016000206040518060e0016040529081600082015481526020016001820154815260200160028201805461122e90611e53565b80601f016020809104026020016040519081016040528092919081815260200182805461125a90611e53565b80156112a75780601f1061127c576101008083540402835291602001916112a7565b820191906000526020600020905b81548152906001019060200180831161128a57829003601f168201915b505050505081526020016003820180546112c090611e53565b80601f01602080910402602001604051908101604052809291908181526020018280546112ec90611e53565b80156113395780601f1061130e57610100808354040283529160200191611339565b820191906000526020600020905b81548152906001019060200180831161131c57829003601f168201915b5050509183525050600482015460208201526005820154604082015260069091015460ff16151560609091015292915050565b6000828152602081905260409020600101546113878161170d565b610a7b8383611827565b600061139c82611717565b5060009081526009602052604090205490565b60006113b9611748565b6113c285611717565b60008581526004602081905260409091209081015460ff166113fa57604051633cf2d53960e21b8152600481018790526024016106a2565b61140385611892565b6000858152600560205260409020600681015460ff16611439576040516348f02acd60e01b8152600481018790526024016106a2565b868160010154146114675760405163ea1c5c9f60e01b815260048101879052602481018890526044016106a2565b806005015460000361148f576040516304a75a8360e51b8152600481018790526024016106a2565b806004015434146114bf57600481810154604051630d35e92160e01b8152918201523460248201526044016106a2565b60058082018054600019019055820180543490810190915560008881526009602090815260409182902080548401905560038054600101908190558251610120810184528181528083018c90528084018b905233606082015260808101949094528251601f8901839004830281018301909352878352955060a083019190889088908190840183828082843760009201829052509385525050506020808301829052604080840183905242606094850152878352600682529182902084518155908401516001820155908301516002820155908201516003820180546001600160a01b0319166001600160a01b039092169190911790556080820151600482015560a082015160058201906115d49082611edb565b5060c082015160068201805460e085015161ffff1990911692151561ff001916929092176101009215158302179055909101516007909101556040518690889085907f53ef33f7980027601e9c44280f96062aeee8537323620bfb7c038e8b56f2489f9061164990339034908c908c90612078565b60405180910390a4505061166a60016000805160206120cb83398151915255565b949350505050565b6000805160206120ab83398151915261168a8161170d565b61169385611892565b6000858152600560208181526040928390206004810188905591820186905560068201805486151560ff1990911681179091558351888152918201879052818401529151909187917f24833e9f5188ae0f7e72e30363b10145255676df1ab74b5137059e1b8e4cba669181900360600190a2505050505050565b6109e881336118c3565b60008181526004602052604081205490036109e85760405163366b30ab60e11b8152600481018290526024016106a2565b611750611900565b60026000805160206120cb83398151915255565b60008181526006602052604081205490036109e85760405163d5f38fab60e01b8152600481018290526024016106a2565b60006117a18383611178565b61181f576000838152602081815260408083206001600160a01b03861684529091529020805460ff191660011790556117d73390565b6001600160a01b0316826001600160a01b0316847f2f8788117e7eff1d82e926ec794901d17c78024a50270940304540a733656f0d60405160405180910390a4506001610609565b506000610609565b60006118338383611178565b1561181f576000838152602081815260408083206001600160a01b0386168085529252808320805460ff1916905551339286917ff6391f5c32d9c69d2a47ea670b442974b53935d1edc7fd64eb21e047a839171b9190a4506001610609565b60008181526005602052604081205490036109e8576040516392691cab60e01b8152600481018290526024016106a2565b6118cd8282611178565b6118fc5760405163e2517d3f60e01b81526001600160a01b0382166004820152602481018390526044016106a2565b5050565b6000805160206120cb8339815191525460020361193057604051633ee5aeb560e01b815260040160405180910390fd5b565b60008083601f84011261194457600080fd5b50813567ffffffffffffffff81111561195c57600080fd5b60208301915083602082850101111561197457600080fd5b9250929050565b600080600080600080600060a0888a03121561199657600080fd5b87359650602088013567ffffffffffffffff808211156119b557600080fd5b6119c18b838c01611932565b909850965060408a01359150808211156119da57600080fd5b506119e78a828b01611932565b989b979a5095989597966060870135966080013595509350505050565b600060208284031215611a1657600080fd5b81356001600160e01b031981168114611a2e57600080fd5b9392505050565b6001600160a01b03811681146109e857600080fd5b600080600060608486031215611a5f57600080fd5b833592506020840135611a7181611a35565b929592945050506040919091013590565b600060208284031215611a9457600080fd5b5035919050565b6020808252825182820181905260009190848201906040850190845b81811015611ad357835183529284019291840191600101611ab7565b50909695505050505050565b60008060408385031215611af257600080fd5b823591506020830135611b0481611a35565b809150509250929050565b6000815180845260005b81811015611b3557602081850181015186830182015201611b19565b506000602082860101526020601f19601f83011685010191505092915050565b6020815281516020820152602082015160408201526040820151606082015260006060830151611b9060808401826001600160a01b03169052565b50608083015160a083015260a08301516101208060c0850152611bb7610140850183611b0f565b915060c0850151611bcc60e086018215159052565b5060e0850151610100611be28187018315159052565b959095015193019290925250919050565b80358015158114611c0357600080fd5b919050565b60008060408385031215611c1b57600080fd5b82359150611c2b60208401611bf3565b90509250929050565b602081528151602082015260018060a01b0360208301511660408201526000604083015160c06060840152611c6c60e0840182611b0f565b90506060840151601f19848303016080850152611c898282611b0f565b9150506080840151151560a084015260a084015160c08401528091505092915050565b600080600080600060608688031215611cc457600080fd5b853567ffffffffffffffff80821115611cdc57600080fd5b611ce889838a01611932565b90975095506020880135915080821115611d0157600080fd5b50611d0e88828901611932565b9094509250506040860135611d2281611a35565b809150509295509295909350565b6020815281516020820152602082015160408201526000604083015160e06060840152611d61610100840182611b0f565b90506060840151601f19848303016080850152611d7e8282611b0f565b915050608084015160a084015260a084015160c084015260c0840151151560e08401528091505092915050565b60008060008060608587031215611dc157600080fd5b8435935060208501359250604085013567ffffffffffffffff811115611de657600080fd5b611df287828801611932565b95989497509550505050565b60008060008060808587031215611e1457600080fd5b843593506020850135925060408501359150611e3260608601611bf3565b905092959194509250565b634e487b7160e01b600052604160045260246000fd5b600181811c90821680611e6757607f821691505b602082108103611e8757634e487b7160e01b600052602260045260246000fd5b50919050565b601f82111561080657600081815260208120601f850160051c81016020861015611eb45750805b601f850160051c820191505b81811015611ed357828155600101611ec0565b505050505050565b815167ffffffffffffffff811115611ef557611ef5611e3d565b611f0981611f038454611e53565b84611e8d565b602080601f831160018114611f3e5760008415611f265750858301515b600019600386901b1c1916600185901b178555611ed3565b600085815260208120601f198616915b82811015611f6d57888601518255948401946001909101908401611f4e565b5085821015611f8b5787850151600019600388901b60f8161c191681555b5050505050600190811b01905550565b81835281816020850137506000828201602090810191909152601f909101601f19169091010190565b608081526000611fd860808301888a611f9b565b8281036020840152611feb818789611f9b565b6040840195909552505060600152949350505050565b8181038181111561060957634e487b7160e01b600052601160045260246000fd5b8183823760009101908152919050565b60208152600061166a602083018486611f9b565b60408152600061205a604083018688611f9b565b828103602084015261206d818587611f9b565b979650505050505050565b60018060a01b03851681528360208201526060604082015260006120a0606083018486611f9b565b969550505050505056fe97667070c54ef182b0f5858b034beac1b6f3089aa2d3188bb1e8929f4fa9b9299b779b17422d0df92223018b32b4d1fa46e071723d6817e2486d003becc55f00a26469706673582212209d9d79cf329765e3557f1117272189f6df7bbe9343c505ec0af58a976366cc7f64736f6c63430008140033","opcodes":"PUSH1 0x80 PUSH1 0x40 MSTORE CALLVALUE DUP1 ISZERO PUSH3 0x11 JUMPI PUSH1 0x0 DUP1 REVERT JUMPDEST POP PUSH1 0x40 MLOAD PUSH3 0x231F CODESIZE SUB DUP1 PUSH3 0x231F DUP4 CODECOPY DUP2 ADD PUSH1 0x40 DUP2 SWAP1 MSTORE PUSH3 0x34 SWAP2 PUSH3 0x1B7 JUMP JUMPDEST PUSH1 0x1 PUSH32 0x9B779B17422D0DF92223018B32B4D1FA46E071723D6817E2486D003BECC55F00 SSTORE PUSH1 0x1 PUSH1 0x1 PUSH1 0xA0 SHL SUB DUP3 AND PUSH3 0x80 JUMPI PUSH1 0x40 MLOAD PUSH4 0xD92E233D PUSH1 0xE0 SHL DUP2 MSTORE PUSH1 0x4 ADD PUSH1 0x40 MLOAD DUP1 SWAP2 SUB SWAP1 REVERT JUMPDEST PUSH1 0x1 PUSH1 0x1 PUSH1 0xA0 SHL SUB DUP2 AND PUSH3 0xA8 JUMPI PUSH1 0x40 MLOAD PUSH4 0xD92E233D PUSH1 0xE0 SHL DUP2 MSTORE PUSH1 0x4 ADD PUSH1 0x40 MLOAD DUP1 SWAP2 SUB SWAP1 REVERT JUMPDEST PUSH3 0xB5 PUSH1 0x0 DUP4 PUSH3 0xEB JUMP JUMPDEST POP PUSH3 0xE2 PUSH32 0x97667070C54EF182B0F5858B034BEAC1B6F3089AA2D3188BB1E8929F4FA9B929 DUP3 PUSH3 0xEB JUMP JUMPDEST POP POP POP PUSH3 0x1EF JUMP JUMPDEST PUSH1 0x0 DUP3 DUP2 MSTORE PUSH1 0x20 DUP2 DUP2 MSTORE PUSH1 0x40 DUP1 DUP4 KECCAK256 PUSH1 0x1 PUSH1 0x1 PUSH1 0xA0 SHL SUB DUP6 AND DUP5 MSTORE SWAP1 SWAP2 MSTORE DUP2 KECCAK256 SLOAD PUSH1 0xFF AND PUSH3 0x190 JUMPI PUSH1 0x0 DUP4 DUP2 MSTORE PUSH1 0x20 DUP2 DUP2 MSTORE PUSH1 0x40 DUP1 DUP4 KECCAK256 PUSH1 0x1 PUSH1 0x1 PUSH1 0xA0 SHL SUB DUP7 AND DUP5 MSTORE SWAP1 SWAP2 MSTORE SWAP1 KECCAK256 DUP1 SLOAD PUSH1 0xFF NOT AND PUSH1 0x1 OR SWAP1 SSTORE PUSH3 0x147 CALLER SWAP1 JUMP JUMPDEST PUSH1 0x1 PUSH1 0x1 PUSH1 0xA0 SHL SUB AND DUP3 PUSH1 0x1 PUSH1 0x1 PUSH1 0xA0 SHL SUB AND DUP5 PUSH32 0x2F8788117E7EFF1D82E926EC794901D17C78024A50270940304540A733656F0D PUSH1 0x40 MLOAD PUSH1 0x40 MLOAD DUP1 SWAP2 SUB SWAP1 LOG4 POP PUSH1 0x1 PUSH3 0x194 JUMP JUMPDEST POP PUSH1 0x0 JUMPDEST SWAP3 SWAP2 POP POP JUMP JUMPDEST DUP1 MLOAD PUSH1 0x1 PUSH1 0x1 PUSH1 0xA0 SHL SUB DUP2 AND DUP2 EQ PUSH3 0x1B2 JUMPI PUSH1 0x0 DUP1 REVERT JUMPDEST SWAP2 SWAP1 POP JUMP JUMPDEST PUSH1 0x0 DUP1 PUSH1 0x40 DUP4 DUP6 SUB SLT ISZERO PUSH3 0x1CB JUMPI PUSH1 0x0 DUP1 REVERT JUMPDEST PUSH3 0x1D6 DUP4 PUSH3 0x19A JUMP JUMPDEST SWAP2 POP PUSH3 0x1E6 PUSH1 0x20 DUP5 ADD PUSH3 0x19A JUMP JUMPDEST SWAP1 POP SWAP3 POP SWAP3 SWAP1 POP JUMP JUMPDEST PUSH2 0x2120 DUP1 PUSH3 0x1FF PUSH1 0x0 CODECOPY PUSH1 0x0 RETURN INVALID PUSH1 0x80 PUSH1 0x40 MSTORE PUSH1 0x4 CALLDATASIZE LT PUSH2 0x12A JUMPI PUSH1 0x0 CALLDATALOAD PUSH1 0xE0 SHR DUP1 PUSH4 0x6A3341D3 GT PUSH2 0xAB JUMPI DUP1 PUSH4 0xB9DB15B4 GT PUSH2 0x6F JUMPI DUP1 PUSH4 0xB9DB15B4 EQ PUSH2 0x360 JUMPI DUP1 PUSH4 0xD547741F EQ PUSH2 0x38D JUMPI DUP1 PUSH4 0xEB4A39E0 EQ PUSH2 0x3AD JUMPI DUP1 PUSH4 0xEB64D579 EQ PUSH2 0x3CD JUMPI DUP1 PUSH4 0xF5B541A6 EQ PUSH2 0x3E0 JUMPI DUP1 PUSH4 0xFAAAC390 EQ PUSH2 0x402 JUMPI PUSH1 0x0 DUP1 REVERT JUMPDEST DUP1 PUSH4 0x6A3341D3 EQ PUSH2 0x2BE JUMPI DUP1 PUSH4 0x6D3FAC54 EQ PUSH2 0x2DE JUMPI DUP1 PUSH4 0x890A10B7 EQ PUSH2 0x30B JUMPI DUP1 PUSH4 0x91D14854 EQ PUSH2 0x32B JUMPI DUP1 PUSH4 0xA217FDDF EQ PUSH2 0x34B JUMPI PUSH1 0x0 DUP1 REVERT JUMPDEST DUP1 PUSH4 0x248A9CA3 GT PUSH2 0xF2 JUMPI DUP1 PUSH4 0x248A9CA3 EQ PUSH2 0x201 JUMPI DUP1 PUSH4 0x2F2FF15D EQ PUSH2 0x231 JUMPI DUP1 PUSH4 0x36568ABE EQ PUSH2 0x251 JUMPI DUP1 PUSH4 0x3742A9F7 EQ PUSH2 0x271 JUMPI DUP1 PUSH4 0x3F5524BE EQ PUSH2 0x29E JUMPI PUSH1 0x0 DUP1 REVERT JUMPDEST DUP1 PUSH4 0x1DB5B48 EQ PUSH2 0x12F JUMPI DUP1 PUSH4 0x1FFC9A7 EQ PUSH2 0x162 JUMPI DUP1 PUSH4 0x634A223 EQ PUSH2 0x192 JUMPI DUP1 PUSH4 0x1C77B27A EQ PUSH2 0x1B4 JUMPI DUP1 PUSH4 0x1EAED063 EQ PUSH2 0x1D4 JUMPI JUMPDEST PUSH1 0x0 DUP1 REVERT JUMPDEST CALLVALUE DUP1 ISZERO PUSH2 0x13B JUMPI PUSH1 0x0 DUP1 REVERT JUMPDEST POP PUSH2 0x14F PUSH2 0x14A CALLDATASIZE PUSH1 0x4 PUSH2 0x197B JUMP JUMPDEST PUSH2 0x422 JUMP JUMPDEST PUSH1 0x40 MLOAD SWAP1 DUP2 MSTORE PUSH1 0x20 ADD JUMPDEST PUSH1 0x40 MLOAD DUP1 SWAP2 SUB SWAP1 RETURN JUMPDEST CALLVALUE DUP1 ISZERO PUSH2 0x16E JUMPI PUSH1 0x0 DUP1 REVERT JUMPDEST POP PUSH2 0x182 PUSH2 0x17D CALLDATASIZE PUSH1 0x4 PUSH2 0x1A04 JUMP JUMPDEST PUSH2 0x5D8 JUMP JUMPDEST PUSH1 0x40 MLOAD SWAP1 ISZERO ISZERO DUP2 MSTORE PUSH1 0x20 ADD PUSH2 0x159 JUMP JUMPDEST CALLVALUE DUP1 ISZERO PUSH2 0x19E JUMPI PUSH1 0x0 DUP1 REVERT JUMPDEST POP PUSH2 0x1B2 PUSH2 0x1AD CALLDATASIZE PUSH1 0x4 PUSH2 0x1A4A JUMP JUMPDEST PUSH2 0x60F JUMP JUMPDEST STOP JUMPDEST CALLVALUE DUP1 ISZERO PUSH2 0x1C0 JUMPI PUSH1 0x0 DUP1 REVERT JUMPDEST POP PUSH2 0x1B2 PUSH2 0x1CF CALLDATASIZE PUSH1 0x4 PUSH2 0x1A82 JUMP JUMPDEST PUSH2 0x80B JUMP JUMPDEST CALLVALUE DUP1 ISZERO PUSH2 0x1E0 JUMPI PUSH1 0x0 DUP1 REVERT JUMPDEST POP PUSH2 0x1F4 PUSH2 0x1EF CALLDATASIZE PUSH1 0x4 PUSH2 0x1A82 JUMP JUMPDEST PUSH2 0x9EB JUMP JUMPDEST PUSH1 0x40 MLOAD PUSH2 0x159 SWAP2 SWAP1 PUSH2 0x1A9B JUMP JUMPDEST CALLVALUE DUP1 ISZERO PUSH2 0x20D JUMPI PUSH1 0x0 DUP1 REVERT JUMPDEST POP PUSH2 0x14F PUSH2 0x21C CALLDATASIZE PUSH1 0x4 PUSH2 0x1A82 JUMP JUMPDEST PUSH1 0x0 SWAP1 DUP2 MSTORE PUSH1 0x20 DUP2 SWAP1 MSTORE PUSH1 0x40 SWAP1 KECCAK256 PUSH1 0x1 ADD SLOAD SWAP1 JUMP JUMPDEST CALLVALUE DUP1 ISZERO PUSH2 0x23D JUMPI PUSH1 0x0 DUP1 REVERT JUMPDEST POP PUSH2 0x1B2 PUSH2 0x24C CALLDATASIZE PUSH1 0x4 PUSH2 0x1ADF JUMP JUMPDEST PUSH2 0xA56 JUMP JUMPDEST CALLVALUE DUP1 ISZERO PUSH2 0x25D JUMPI PUSH1 0x0 DUP1 REVERT JUMPDEST POP PUSH2 0x1B2 PUSH2 0x26C CALLDATASIZE PUSH1 0x4 PUSH2 0x1ADF JUMP JUMPDEST PUSH2 0xA81 JUMP JUMPDEST CALLVALUE DUP1 ISZERO PUSH2 0x27D JUMPI PUSH1 0x0 DUP1 REVERT JUMPDEST POP PUSH2 0x291 PUSH2 0x28C CALLDATASIZE PUSH1 0x4 PUSH2 0x1A82 JUMP JUMPDEST PUSH2 0xAB4 JUMP JUMPDEST PUSH1 0x40 MLOAD PUSH2 0x159 SWAP2 SWAP1 PUSH2 0x1B55 JUMP JUMPDEST CALLVALUE DUP1 ISZERO PUSH2 0x2AA JUMPI PUSH1 0x0 DUP1 REVERT JUMPDEST POP PUSH2 0x1B2 PUSH2 0x2B9 CALLDATASIZE PUSH1 0x4 PUSH2 0x1A82 JUMP JUMPDEST PUSH2 0xC37 JUMP JUMPDEST CALLVALUE DUP1 ISZERO PUSH2 0x2CA JUMPI PUSH1 0x0 DUP1 REVERT JUMPDEST POP PUSH2 0x1B2 PUSH2 0x2D9 CALLDATASIZE PUSH1 0x4 PUSH2 0x1C08 JUMP JUMPDEST PUSH2 0xD09 JUMP JUMPDEST CALLVALUE DUP1 ISZERO PUSH2 0x2EA JUMPI PUSH1 0x0 DUP1 REVERT JUMPDEST POP PUSH2 0x2FE PUSH2 0x2F9 CALLDATASIZE PUSH1 0x4 PUSH2 0x1A82 JUMP JUMPDEST PUSH2 0xD7D JUMP JUMPDEST PUSH1 0x40 MLOAD PUSH2 0x159 SWAP2 SWAP1 PUSH2 0x1C34 JUMP JUMPDEST CALLVALUE DUP1 ISZERO PUSH2 0x317 JUMPI PUSH1 0x0 DUP1 REVERT JUMPDEST POP PUSH2 0x14F PUSH2 0x326 CALLDATASIZE PUSH1 0x4 PUSH2 0x1CAC JUMP JUMPDEST PUSH2 0xF48 JUMP JUMPDEST CALLVALUE DUP1 ISZERO PUSH2 0x337 JUMPI PUSH1 0x0 DUP1 REVERT JUMPDEST POP PUSH2 0x182 PUSH2 0x346 CALLDATASIZE PUSH1 0x4 PUSH2 0x1ADF JUMP JUMPDEST PUSH2 0x1178 JUMP JUMPDEST CALLVALUE DUP1 ISZERO PUSH2 0x357 JUMPI PUSH1 0x0 DUP1 REVERT JUMPDEST POP PUSH2 0x14F PUSH1 0x0 DUP2 JUMP JUMPDEST CALLVALUE DUP1 ISZERO PUSH2 0x36C JUMPI PUSH1 0x0 DUP1 REVERT JUMPDEST POP PUSH2 0x380 PUSH2 0x37B CALLDATASIZE PUSH1 0x4 PUSH2 0x1A82 JUMP JUMPDEST PUSH2 0x11A1 JUMP JUMPDEST PUSH1 0x40 MLOAD PUSH2 0x159 SWAP2 SWAP1 PUSH2 0x1D30 JUMP JUMPDEST CALLVALUE DUP1 ISZERO PUSH2 0x399 JUMPI PUSH1 0x0 DUP1 REVERT JUMPDEST POP PUSH2 0x1B2 PUSH2 0x3A8 CALLDATASIZE PUSH1 0x4 PUSH2 0x1ADF JUMP JUMPDEST PUSH2 0x136C JUMP JUMPDEST CALLVALUE DUP1 ISZERO PUSH2 0x3B9 JUMPI PUSH1 0x0 DUP1 REVERT JUMPDEST POP PUSH2 0x14F PUSH2 0x3C8 CALLDATASIZE PUSH1 0x4 PUSH2 0x1A82 JUMP JUMPDEST PUSH2 0x1391 JUMP JUMPDEST PUSH2 0x14F PUSH2 0x3DB CALLDATASIZE PUSH1 0x4 PUSH2 0x1DAB JUMP JUMPDEST PUSH2 0x13AF JUMP JUMPDEST CALLVALUE DUP1 ISZERO PUSH2 0x3EC JUMPI PUSH1 0x0 DUP1 REVERT JUMPDEST POP PUSH2 0x14F PUSH1 0x0 DUP1 MLOAD PUSH1 0x20 PUSH2 0x20AB DUP4 CODECOPY DUP2 MLOAD SWAP2 MSTORE DUP2 JUMP JUMPDEST CALLVALUE DUP1 ISZERO PUSH2 0x40E JUMPI PUSH1 0x0 DUP1 REVERT JUMPDEST POP PUSH2 0x1B2 PUSH2 0x41D CALLDATASIZE PUSH1 0x4 PUSH2 0x1DFE JUMP JUMPDEST PUSH2 0x1672 JUMP JUMPDEST PUSH1 0x0 PUSH1 0x0 DUP1 MLOAD PUSH1 0x20 PUSH2 0x20AB DUP4 CODECOPY DUP2 MLOAD SWAP2 MSTORE PUSH2 0x43C DUP2 PUSH2 0x170D JUMP JUMPDEST PUSH2 0x445 DUP10 PUSH2 0x1717 JUMP JUMPDEST PUSH1 0x2 DUP1 SLOAD PUSH1 0x1 ADD SWAP1 DUP2 SWAP1 SSTORE PUSH1 0x40 DUP1 MLOAD PUSH1 0xE0 DUP2 ADD DUP3 MSTORE DUP3 DUP2 MSTORE PUSH1 0x20 DUP1 DUP3 ADD DUP14 SWAP1 MSTORE DUP3 MLOAD PUSH1 0x1F DUP13 ADD DUP3 SWAP1 DIV DUP3 MUL DUP2 ADD DUP3 ADD DUP5 MSTORE DUP12 DUP2 MSTORE SWAP4 SWAP6 POP SWAP1 SWAP3 SWAP2 DUP4 ADD SWAP2 SWAP1 DUP12 SWAP1 DUP12 SWAP1 DUP2 SWAP1 DUP5 ADD DUP4 DUP3 DUP1 DUP3 DUP5 CALLDATACOPY PUSH1 0x0 SWAP3 ADD SWAP2 SWAP1 SWAP2 MSTORE POP POP POP SWAP1 DUP3 MSTORE POP PUSH1 0x40 DUP1 MLOAD PUSH1 0x20 PUSH1 0x1F DUP11 ADD DUP2 SWAP1 DIV DUP2 MUL DUP3 ADD DUP2 ADD SWAP1 SWAP3 MSTORE DUP9 DUP2 MSTORE SWAP2 DUP2 ADD SWAP2 SWAP1 DUP10 SWAP1 DUP10 SWAP1 DUP2 SWAP1 DUP5 ADD DUP4 DUP3 DUP1 DUP3 DUP5 CALLDATACOPY PUSH1 0x0 SWAP3 ADD DUP3 SWAP1 MSTORE POP SWAP4 DUP6 MSTORE POP POP POP PUSH1 0x20 DUP1 DUP4 ADD DUP9 SWAP1 MSTORE PUSH1 0x40 DUP1 DUP5 ADD DUP9 SWAP1 MSTORE PUSH1 0x1 PUSH1 0x60 SWAP1 SWAP5 ADD DUP5 SWAP1 MSTORE DUP7 DUP4 MSTORE PUSH1 0x5 DUP3 MSTORE SWAP2 DUP3 SWAP1 KECCAK256 DUP5 MLOAD DUP2 SSTORE SWAP1 DUP5 ADD MLOAD SWAP3 DUP2 ADD SWAP3 SWAP1 SWAP3 SSTORE DUP3 ADD MLOAD PUSH1 0x2 DUP3 ADD SWAP1 PUSH2 0x520 SWAP1 DUP3 PUSH2 0x1EDB JUMP JUMPDEST POP PUSH1 0x60 DUP3 ADD MLOAD PUSH1 0x3 DUP3 ADD SWAP1 PUSH2 0x535 SWAP1 DUP3 PUSH2 0x1EDB JUMP JUMPDEST POP PUSH1 0x80 DUP3 ADD MLOAD PUSH1 0x4 DUP3 ADD SSTORE PUSH1 0xA0 DUP3 ADD MLOAD PUSH1 0x5 DUP3 ADD SSTORE PUSH1 0xC0 SWAP1 SWAP2 ADD MLOAD PUSH1 0x6 SWAP1 SWAP2 ADD DUP1 SLOAD PUSH1 0xFF NOT AND SWAP2 ISZERO ISZERO SWAP2 SWAP1 SWAP2 OR SWAP1 SSTORE PUSH1 0x0 DUP10 DUP2 MSTORE PUSH1 0x8 PUSH1 0x20 SWAP1 DUP2 MSTORE PUSH1 0x40 DUP1 DUP4 KECCAK256 DUP1 SLOAD PUSH1 0x1 DUP2 ADD DUP3 SSTORE SWAP1 DUP5 MSTORE SWAP2 SWAP1 SWAP3 KECCAK256 ADD DUP4 SWAP1 SSTORE MLOAD DUP10 SWAP1 DUP4 SWAP1 PUSH32 0x982CD1764D3C3F922523EE2E4ABC3B6CEE55B1DA5D6A966AA60CE3B9A927FA5C SWAP1 PUSH2 0x5C4 SWAP1 DUP13 SWAP1 DUP13 SWAP1 DUP13 SWAP1 DUP13 SWAP1 DUP13 SWAP1 DUP13 SWAP1 PUSH2 0x1FC4 JUMP JUMPDEST PUSH1 0x40 MLOAD DUP1 SWAP2 SUB SWAP1 LOG3 POP SWAP8 SWAP7 POP POP POP POP POP POP POP JUMP JUMPDEST PUSH1 0x0 PUSH1 0x1 PUSH1 0x1 PUSH1 0xE0 SHL SUB NOT DUP3 AND PUSH4 0x7965DB0B PUSH1 0xE0 SHL EQ DUP1 PUSH2 0x609 JUMPI POP PUSH4 0x1FFC9A7 PUSH1 0xE0 SHL PUSH1 0x1 PUSH1 0x1 PUSH1 0xE0 SHL SUB NOT DUP4 AND EQ JUMPDEST SWAP3 SWAP2 POP POP JUMP JUMPDEST PUSH2 0x617 PUSH2 0x1748 JUMP JUMPDEST PUSH2 0x620 DUP4 PUSH2 0x1717 JUMP JUMPDEST PUSH1 0x1 PUSH1 0x1 PUSH1 0xA0 SHL SUB DUP3 AND PUSH2 0x647 JUMPI PUSH1 0x40 MLOAD PUSH4 0xD92E233D PUSH1 0xE0 SHL DUP2 MSTORE PUSH1 0x4 ADD PUSH1 0x40 MLOAD DUP1 SWAP2 SUB SWAP1 REVERT JUMPDEST PUSH1 0x0 PUSH2 0x653 DUP2 CALLER PUSH2 0x1178 JUMP JUMPDEST PUSH1 0x0 DUP6 DUP2 MSTORE PUSH1 0x4 PUSH1 0x20 MSTORE PUSH1 0x40 SWAP1 KECCAK256 PUSH1 0x1 ADD SLOAD SWAP1 SWAP2 POP PUSH1 0x1 PUSH1 0x1 PUSH1 0xA0 SHL SUB AND CALLER EQ DUP2 ISZERO DUP1 ISZERO PUSH2 0x67F JUMPI POP DUP1 ISZERO JUMPDEST ISZERO PUSH2 0x6AB JUMPI PUSH1 0x40 MLOAD PUSH4 0x1B7A9D6D PUSH1 0xE3 SHL DUP2 MSTORE CALLER PUSH1 0x4 DUP3 ADD MSTORE PUSH1 0x24 DUP2 ADD DUP7 SWAP1 MSTORE PUSH1 0x44 ADD JUMPDEST PUSH1 0x40 MLOAD DUP1 SWAP2 SUB SWAP1 REVERT JUMPDEST PUSH1 0x0 DUP6 DUP2 MSTORE PUSH1 0x9 PUSH1 0x20 MSTORE PUSH1 0x40 SWAP1 KECCAK256 SLOAD DUP1 DUP5 GT ISZERO PUSH2 0x6EC JUMPI PUSH1 0x40 MLOAD PUSH4 0xB42AF7F PUSH1 0xE2 SHL DUP2 MSTORE PUSH1 0x4 DUP2 ADD DUP8 SWAP1 MSTORE PUSH1 0x24 DUP2 ADD DUP3 SWAP1 MSTORE PUSH1 0x44 DUP2 ADD DUP6 SWAP1 MSTORE PUSH1 0x64 ADD PUSH2 0x6A2 JUMP JUMPDEST PUSH1 0x0 DUP7 DUP2 MSTORE PUSH1 0x9 PUSH1 0x20 MSTORE PUSH1 0x40 DUP2 KECCAK256 DUP1 SLOAD DUP7 SWAP3 SWAP1 PUSH2 0x70A SWAP1 DUP5 SWAP1 PUSH2 0x2001 JUMP JUMPDEST SWAP1 SWAP2 SSTORE POP POP PUSH1 0x0 DUP7 DUP2 MSTORE PUSH1 0x4 PUSH1 0x20 MSTORE PUSH1 0x40 DUP2 KECCAK256 PUSH1 0x5 ADD DUP1 SLOAD DUP7 SWAP3 SWAP1 PUSH2 0x730 SWAP1 DUP5 SWAP1 PUSH2 0x2001 JUMP JUMPDEST SWAP1 SWAP2 SSTORE POP POP PUSH1 0x40 MLOAD PUSH1 0x0 SWAP1 PUSH1 0x1 PUSH1 0x1 PUSH1 0xA0 SHL SUB DUP8 AND SWAP1 DUP7 SWAP1 DUP4 DUP2 DUP2 DUP2 DUP6 DUP8 GAS CALL SWAP3 POP POP POP RETURNDATASIZE DUP1 PUSH1 0x0 DUP2 EQ PUSH2 0x780 JUMPI PUSH1 0x40 MLOAD SWAP2 POP PUSH1 0x1F NOT PUSH1 0x3F RETURNDATASIZE ADD AND DUP3 ADD PUSH1 0x40 MSTORE RETURNDATASIZE DUP3 MSTORE RETURNDATASIZE PUSH1 0x0 PUSH1 0x20 DUP5 ADD RETURNDATACOPY PUSH2 0x785 JUMP JUMPDEST PUSH1 0x60 SWAP2 POP JUMPDEST POP POP SWAP1 POP DUP1 PUSH2 0x7A7 JUMPI PUSH1 0x40 MLOAD PUSH4 0x12171D83 PUSH1 0xE3 SHL DUP2 MSTORE PUSH1 0x4 ADD PUSH1 0x40 MLOAD DUP1 SWAP2 SUB SWAP1 REVERT JUMPDEST DUP6 PUSH1 0x1 PUSH1 0x1 PUSH1 0xA0 SHL SUB AND DUP8 PUSH32 0x841FBAB03327EFE47FB7D133055C9AA87DF38FF76B5919D1C190E0067C5E34B3 DUP8 PUSH1 0x40 MLOAD PUSH2 0x7E3 SWAP2 DUP2 MSTORE PUSH1 0x20 ADD SWAP1 JUMP JUMPDEST PUSH1 0x40 MLOAD DUP1 SWAP2 SUB SWAP1 LOG3 POP POP POP POP PUSH2 0x806 PUSH1 0x1 PUSH1 0x0 DUP1 MLOAD PUSH1 0x20 PUSH2 0x20CB DUP4 CODECOPY DUP2 MLOAD SWAP2 MSTORE SSTORE JUMP JUMPDEST POP POP POP JUMP JUMPDEST PUSH2 0x813 PUSH2 0x1748 JUMP JUMPDEST PUSH1 0x0 DUP1 MLOAD PUSH1 0x20 PUSH2 0x20AB DUP4 CODECOPY DUP2 MLOAD SWAP2 MSTORE PUSH2 0x82B DUP2 PUSH2 0x170D JUMP JUMPDEST PUSH2 0x834 DUP3 PUSH2 0x1764 JUMP JUMPDEST PUSH1 0x0 DUP3 DUP2 MSTORE PUSH1 0x6 PUSH1 0x20 DUP2 SWAP1 MSTORE PUSH1 0x40 SWAP1 SWAP2 KECCAK256 SWAP1 DUP2 ADD SLOAD PUSH1 0xFF AND ISZERO PUSH2 0x86D JUMPI PUSH1 0x40 MLOAD PUSH4 0x5C6CBC99 PUSH1 0xE0 SHL DUP2 MSTORE PUSH1 0x4 DUP2 ADD DUP5 SWAP1 MSTORE PUSH1 0x24 ADD PUSH2 0x6A2 JUMP JUMPDEST PUSH1 0x6 DUP2 ADD SLOAD PUSH2 0x100 SWAP1 DIV PUSH1 0xFF AND ISZERO PUSH2 0x89B JUMPI PUSH1 0x40 MLOAD PUSH4 0x81FD8F27 PUSH1 0xE0 SHL DUP2 MSTORE PUSH1 0x4 DUP2 ADD DUP5 SWAP1 MSTORE PUSH1 0x24 ADD PUSH2 0x6A2 JUMP JUMPDEST PUSH1 0x4 DUP1 DUP3 ADD SLOAD PUSH1 0x3 DUP4 ADD SLOAD PUSH1 0x1 DUP5 ADD SLOAD PUSH1 0x6 DUP6 ADD DUP1 SLOAD PUSH2 0xFF00 NOT AND PUSH2 0x100 OR SWAP1 SSTORE PUSH1 0x0 DUP2 DUP2 MSTORE PUSH1 0x20 SWAP5 SWAP1 SWAP5 MSTORE PUSH1 0x40 DUP5 KECCAK256 PUSH1 0x5 ADD DUP1 SLOAD SWAP4 SWAP5 PUSH1 0x1 PUSH1 0x1 PUSH1 0xA0 SHL SUB SWAP1 SWAP4 AND SWAP4 SWAP2 SWAP3 DUP6 SWAP3 PUSH2 0x8ED SWAP1 DUP5 SWAP1 PUSH2 0x2001 JUMP JUMPDEST SWAP1 SWAP2 SSTORE POP POP PUSH1 0x0 DUP2 DUP2 MSTORE PUSH1 0x9 PUSH1 0x20 MSTORE PUSH1 0x40 DUP2 KECCAK256 DUP1 SLOAD DUP6 SWAP3 SWAP1 PUSH2 0x910 SWAP1 DUP5 SWAP1 PUSH2 0x2001 JUMP JUMPDEST SWAP1 SWAP2 SSTORE POP POP PUSH1 0x40 MLOAD PUSH1 0x0 SWAP1 PUSH1 0x1 PUSH1 0x1 PUSH1 0xA0 SHL SUB DUP5 AND SWAP1 DUP6 SWAP1 DUP4 DUP2 DUP2 DUP2 DUP6 DUP8 GAS CALL SWAP3 POP POP POP RETURNDATASIZE DUP1 PUSH1 0x0 DUP2 EQ PUSH2 0x960 JUMPI PUSH1 0x40 MLOAD SWAP2 POP PUSH1 0x1F NOT PUSH1 0x3F RETURNDATASIZE ADD AND DUP3 ADD PUSH1 0x40 MSTORE RETURNDATASIZE DUP3 MSTORE RETURNDATASIZE PUSH1 0x0 PUSH1 0x20 DUP5 ADD RETURNDATACOPY PUSH2 0x965 JUMP JUMPDEST PUSH1 0x60 SWAP2 POP JUMPDEST POP POP SWAP1 POP DUP1 PUSH2 0x987 JUMPI PUSH1 0x40 MLOAD PUSH4 0x12171D83 PUSH1 0xE3 SHL DUP2 MSTORE PUSH1 0x4 ADD PUSH1 0x40 MLOAD DUP1 SWAP2 SUB SWAP1 REVERT JUMPDEST DUP3 PUSH1 0x1 PUSH1 0x1 PUSH1 0xA0 SHL SUB AND DUP8 PUSH32 0x1FE2436D444EF52C0D011130D785E57A8055C6F9ACB2981D8285EE6DD43A4676 DUP7 PUSH1 0x40 MLOAD PUSH2 0x9C3 SWAP2 DUP2 MSTORE PUSH1 0x20 ADD SWAP1 JUMP JUMPDEST PUSH1 0x40 MLOAD DUP1 SWAP2 SUB SWAP1 LOG3 POP POP POP POP POP POP PUSH2 0x9E8 PUSH1 0x1 PUSH1 0x0 DUP1 MLOAD PUSH1 0x20 PUSH2 0x20CB DUP4 CODECOPY DUP2 MLOAD SWAP2 MSTORE SSTORE JUMP JUMPDEST POP JUMP JUMPDEST PUSH1 0x60 PUSH2 0x9F6 DUP3 PUSH2 0x1717 JUMP JUMPDEST PUSH1 0x0 DUP3 DUP2 MSTORE PUSH1 0x8 PUSH1 0x20 SWAP1 DUP2 MSTORE PUSH1 0x40 SWAP2 DUP3 SWAP1 KECCAK256 DUP1 SLOAD DUP4 MLOAD DUP2 DUP5 MUL DUP2 ADD DUP5 ADD SWAP1 SWAP5 MSTORE DUP1 DUP5 MSTORE SWAP1 SWAP2 DUP4 ADD DUP3 DUP3 DUP1 ISZERO PUSH2 0xA4A JUMPI PUSH1 0x20 MUL DUP3 ADD SWAP2 SWAP1 PUSH1 0x0 MSTORE PUSH1 0x20 PUSH1 0x0 KECCAK256 SWAP1 JUMPDEST DUP2 SLOAD DUP2 MSTORE PUSH1 0x20 ADD SWAP1 PUSH1 0x1 ADD SWAP1 DUP1 DUP4 GT PUSH2 0xA36 JUMPI JUMPDEST POP POP POP POP POP SWAP1 POP SWAP2 SWAP1 POP JUMP JUMPDEST PUSH1 0x0 DUP3 DUP2 MSTORE PUSH1 0x20 DUP2 SWAP1 MSTORE PUSH1 0x40 SWAP1 KECCAK256 PUSH1 0x1 ADD SLOAD PUSH2 0xA71 DUP2 PUSH2 0x170D JUMP JUMPDEST PUSH2 0xA7B DUP4 DUP4 PUSH2 0x1795 JUMP JUMPDEST POP POP POP POP JUMP JUMPDEST PUSH1 0x1 PUSH1 0x1 PUSH1 0xA0 SHL SUB DUP2 AND CALLER EQ PUSH2 0xAAA JUMPI PUSH1 0x40 MLOAD PUSH4 0x334BD919 PUSH1 0xE1 SHL DUP2 MSTORE PUSH1 0x4 ADD PUSH1 0x40 MLOAD DUP1 SWAP2 SUB SWAP1 REVERT JUMPDEST PUSH2 0x806 DUP3 DUP3 PUSH2 0x1827 JUMP JUMPDEST PUSH2 0xB10 PUSH1 0x40 MLOAD DUP1 PUSH2 0x120 ADD PUSH1 0x40 MSTORE DUP1 PUSH1 0x0 DUP2 MSTORE PUSH1 0x20 ADD PUSH1 0x0 DUP2 MSTORE PUSH1 0x20 ADD PUSH1 0x0 DUP2 MSTORE PUSH1 0x20 ADD PUSH1 0x0 PUSH1 0x1 PUSH1 0x1 PUSH1 0xA0 SHL SUB AND DUP2 MSTORE PUSH1 0x20 ADD PUSH1 0x0 DUP2 MSTORE PUSH1 0x20 ADD PUSH1 0x60 DUP2 MSTORE PUSH1 0x20 ADD PUSH1 0x0 ISZERO ISZERO DUP2 MSTORE PUSH1 0x20 ADD PUSH1 0x0 ISZERO ISZERO DUP2 MSTORE PUSH1 0x20 ADD PUSH1 0x0 DUP2 MSTORE POP SWAP1 JUMP JUMPDEST PUSH2 0xB19 DUP3 PUSH2 0x1764 JUMP JUMPDEST PUSH1 0x0 DUP3 DUP2 MSTORE PUSH1 0x6 PUSH1 0x20 SWAP1 DUP2 MSTORE PUSH1 0x40 SWAP2 DUP3 SWAP1 KECCAK256 DUP3 MLOAD PUSH2 0x120 DUP2 ADD DUP5 MSTORE DUP2 SLOAD DUP2 MSTORE PUSH1 0x1 DUP3 ADD SLOAD SWAP3 DUP2 ADD SWAP3 SWAP1 SWAP3 MSTORE PUSH1 0x2 DUP2 ADD SLOAD SWAP3 DUP3 ADD SWAP3 SWAP1 SWAP3 MSTORE PUSH1 0x3 DUP3 ADD SLOAD PUSH1 0x1 PUSH1 0x1 PUSH1 0xA0 SHL SUB AND PUSH1 0x60 DUP3 ADD MSTORE PUSH1 0x4 DUP3 ADD SLOAD PUSH1 0x80 DUP3 ADD MSTORE PUSH1 0x5 DUP3 ADD DUP1 SLOAD SWAP2 SWAP3 SWAP2 PUSH1 0xA0 DUP5 ADD SWAP2 SWAP1 PUSH2 0xB85 SWAP1 PUSH2 0x1E53 JUMP JUMPDEST DUP1 PUSH1 0x1F ADD PUSH1 0x20 DUP1 SWAP2 DIV MUL PUSH1 0x20 ADD PUSH1 0x40 MLOAD SWAP1 DUP2 ADD PUSH1 0x40 MSTORE DUP1 SWAP3 SWAP2 SWAP1 DUP2 DUP2 MSTORE PUSH1 0x20 ADD DUP3 DUP1 SLOAD PUSH2 0xBB1 SWAP1 PUSH2 0x1E53 JUMP JUMPDEST DUP1 ISZERO PUSH2 0xBFE JUMPI DUP1 PUSH1 0x1F LT PUSH2 0xBD3 JUMPI PUSH2 0x100 DUP1 DUP4 SLOAD DIV MUL DUP4 MSTORE SWAP2 PUSH1 0x20 ADD SWAP2 PUSH2 0xBFE JUMP JUMPDEST DUP3 ADD SWAP2 SWAP1 PUSH1 0x0 MSTORE PUSH1 0x20 PUSH1 0x0 KECCAK256 SWAP1 JUMPDEST DUP2 SLOAD DUP2 MSTORE SWAP1 PUSH1 0x1 ADD SWAP1 PUSH1 0x20 ADD DUP1 DUP4 GT PUSH2 0xBE1 JUMPI DUP3 SWAP1 SUB PUSH1 0x1F AND DUP3 ADD SWAP2 JUMPDEST POP POP POP SWAP2 DUP4 MSTORE POP POP PUSH1 0x6 DUP3 ADD SLOAD PUSH1 0xFF DUP1 DUP3 AND ISZERO ISZERO PUSH1 0x20 DUP5 ADD MSTORE PUSH2 0x100 SWAP1 SWAP2 DIV AND ISZERO ISZERO PUSH1 0x40 DUP3 ADD MSTORE PUSH1 0x7 SWAP1 SWAP2 ADD SLOAD PUSH1 0x60 SWAP1 SWAP2 ADD MSTORE SWAP3 SWAP2 POP POP JUMP JUMPDEST PUSH1 0x0 DUP1 MLOAD PUSH1 0x20 PUSH2 0x20AB DUP4 CODECOPY DUP2 MLOAD SWAP2 MSTORE PUSH2 0xC4F DUP2 PUSH2 0x170D JUMP JUMPDEST PUSH2 0xC58 DUP3 PUSH2 0x1764 JUMP JUMPDEST PUSH1 0x0 DUP3 DUP2 MSTORE PUSH1 0x6 PUSH1 0x20 DUP2 SWAP1 MSTORE PUSH1 0x40 SWAP1 SWAP2 KECCAK256 SWAP1 DUP2 ADD SLOAD PUSH1 0xFF AND ISZERO PUSH2 0xC91 JUMPI PUSH1 0x40 MLOAD PUSH4 0x5C6CBC99 PUSH1 0xE0 SHL DUP2 MSTORE PUSH1 0x4 DUP2 ADD DUP5 SWAP1 MSTORE PUSH1 0x24 ADD PUSH2 0x6A2 JUMP JUMPDEST PUSH1 0x6 DUP2 ADD SLOAD PUSH2 0x100 SWAP1 DIV PUSH1 0xFF AND ISZERO PUSH2 0xCBF JUMPI PUSH1 0x40 MLOAD PUSH4 0x81FD8F27 PUSH1 0xE0 SHL DUP2 MSTORE PUSH1 0x4 DUP2 ADD DUP5 SWAP1 MSTORE PUSH1 0x24 ADD PUSH2 0x6A2 JUMP JUMPDEST PUSH1 0x6 DUP2 ADD DUP1 SLOAD PUSH1 0xFF NOT AND PUSH1 0x1 OR SWAP1 SSTORE PUSH1 0x40 MLOAD CALLER DUP2 MSTORE DUP4 SWAP1 PUSH32 0xD289D1F8C597A073A8BC28B2DA81611AE40500385A521E8B192B2763D11D3D13 SWAP1 PUSH1 0x20 ADD JUMPDEST PUSH1 0x40 MLOAD DUP1 SWAP2 SUB SWAP1 LOG2 POP POP POP JUMP JUMPDEST PUSH1 0x0 DUP1 MLOAD PUSH1 0x20 PUSH2 0x20AB DUP4 CODECOPY DUP2 MLOAD SWAP2 MSTORE PUSH2 0xD21 DUP2 PUSH2 0x170D JUMP JUMPDEST PUSH2 0xD2A DUP4 PUSH2 0x1717 JUMP JUMPDEST PUSH1 0x0 DUP4 DUP2 MSTORE PUSH1 0x4 PUSH1 0x20 DUP2 DUP2 MSTORE PUSH1 0x40 SWAP3 DUP4 SWAP1 KECCAK256 SWAP1 SWAP2 ADD DUP1 SLOAD PUSH1 0xFF NOT AND DUP6 ISZERO ISZERO SWAP1 DUP2 OR SWAP1 SWAP2 SSTORE SWAP2 MLOAD SWAP2 DUP3 MSTORE DUP5 SWAP2 PUSH32 0x1971B7B5C15250AE2448ED11AB243A59EB7AED73292444530BBC473CA6003448 SWAP2 ADD PUSH2 0xCFC JUMP JUMPDEST PUSH2 0xDC1 PUSH1 0x40 MLOAD DUP1 PUSH1 0xC0 ADD PUSH1 0x40 MSTORE DUP1 PUSH1 0x0 DUP2 MSTORE PUSH1 0x20 ADD PUSH1 0x0 PUSH1 0x1 PUSH1 0x1 PUSH1 0xA0 SHL SUB AND DUP2 MSTORE PUSH1 0x20 ADD PUSH1 0x60 DUP2 MSTORE PUSH1 0x20 ADD PUSH1 0x60 DUP2 MSTORE PUSH1 0x20 ADD PUSH1 0x0 ISZERO ISZERO DUP2 MSTORE PUSH1 0x20 ADD PUSH1 0x0 DUP2 MSTORE POP SWAP1 JUMP JUMPDEST PUSH2 0xDCA DUP3 PUSH2 0x1717 JUMP JUMPDEST PUSH1 0x0 DUP3 DUP2 MSTORE PUSH1 0x4 PUSH1 0x20 SWAP1 DUP2 MSTORE PUSH1 0x40 SWAP2 DUP3 SWAP1 KECCAK256 DUP3 MLOAD PUSH1 0xC0 DUP2 ADD DUP5 MSTORE DUP2 SLOAD DUP2 MSTORE PUSH1 0x1 DUP3 ADD SLOAD PUSH1 0x1 PUSH1 0x1 PUSH1 0xA0 SHL SUB AND SWAP3 DUP2 ADD SWAP3 SWAP1 SWAP3 MSTORE PUSH1 0x2 DUP2 ADD DUP1 SLOAD SWAP3 SWAP4 SWAP2 SWAP3 SWAP2 DUP5 ADD SWAP2 PUSH2 0xE14 SWAP1 PUSH2 0x1E53 JUMP JUMPDEST DUP1 PUSH1 0x1F ADD PUSH1 0x20 DUP1 SWAP2 DIV MUL PUSH1 0x20 ADD PUSH1 0x40 MLOAD SWAP1 DUP2 ADD PUSH1 0x40 MSTORE DUP1 SWAP3 SWAP2 SWAP1 DUP2 DUP2 MSTORE PUSH1 0x20 ADD DUP3 DUP1 SLOAD PUSH2 0xE40 SWAP1 PUSH2 0x1E53 JUMP JUMPDEST DUP1 ISZERO PUSH2 0xE8D JUMPI DUP1 PUSH1 0x1F LT PUSH2 0xE62 JUMPI PUSH2 0x100 DUP1 DUP4 SLOAD DIV MUL DUP4 MSTORE SWAP2 PUSH1 0x20 ADD SWAP2 PUSH2 0xE8D JUMP JUMPDEST DUP3 ADD SWAP2 SWAP1 PUSH1 0x0 MSTORE PUSH1 0x20 PUSH1 0x0 KECCAK256 SWAP1 JUMPDEST DUP2 SLOAD DUP2 MSTORE SWAP1 PUSH1 0x1 ADD SWAP1 PUSH1 0x20 ADD DUP1 DUP4 GT PUSH2 0xE70 JUMPI DUP3 SWAP1 SUB PUSH1 0x1F AND DUP3 ADD SWAP2 JUMPDEST POP POP POP POP POP DUP2 MSTORE PUSH1 0x20 ADD PUSH1 0x3 DUP3 ADD DUP1 SLOAD PUSH2 0xEA6 SWAP1 PUSH2 0x1E53 JUMP JUMPDEST DUP1 PUSH1 0x1F ADD PUSH1 0x20 DUP1 SWAP2 DIV MUL PUSH1 0x20 ADD PUSH1 0x40 MLOAD SWAP1 DUP2 ADD PUSH1 0x40 MSTORE DUP1 SWAP3 SWAP2 SWAP1 DUP2 DUP2 MSTORE PUSH1 0x20 ADD DUP3 DUP1 SLOAD PUSH2 0xED2 SWAP1 PUSH2 0x1E53 JUMP JUMPDEST DUP1 ISZERO PUSH2 0xF1F JUMPI DUP1 PUSH1 0x1F LT PUSH2 0xEF4 JUMPI PUSH2 0x100 DUP1 DUP4 SLOAD DIV MUL DUP4 MSTORE SWAP2 PUSH1 0x20 ADD SWAP2 PUSH2 0xF1F JUMP JUMPDEST DUP3 ADD SWAP2 SWAP1 PUSH1 0x0 MSTORE PUSH1 0x20 PUSH1 0x0 KECCAK256 SWAP1 JUMPDEST DUP2 SLOAD DUP2 MSTORE SWAP1 PUSH1 0x1 ADD SWAP1 PUSH1 0x20 ADD DUP1 DUP4 GT PUSH2 0xF02 JUMPI DUP3 SWAP1 SUB PUSH1 0x1F AND DUP3 ADD SWAP2 JUMPDEST POP POP POP SWAP2 DUP4 MSTORE POP POP PUSH1 0x4 DUP3 ADD SLOAD PUSH1 0xFF AND ISZERO ISZERO PUSH1 0x20 DUP3 ADD MSTORE PUSH1 0x5 SWAP1 SWAP2 ADD SLOAD PUSH1 0x40 SWAP1 SWAP2 ADD MSTORE SWAP3 SWAP2 POP POP JUMP JUMPDEST PUSH1 0x0 PUSH1 0x0 DUP1 MLOAD PUSH1 0x20 PUSH2 0x20AB DUP4 CODECOPY DUP2 MLOAD SWAP2 MSTORE PUSH2 0xF62 DUP2 PUSH2 0x170D JUMP JUMPDEST PUSH1 0x1 PUSH1 0x1 PUSH1 0xA0 SHL SUB DUP4 AND PUSH2 0xF89 JUMPI PUSH1 0x40 MLOAD PUSH4 0xD92E233D PUSH1 0xE0 SHL DUP2 MSTORE PUSH1 0x4 ADD PUSH1 0x40 MLOAD DUP1 SWAP2 SUB SWAP1 REVERT JUMPDEST PUSH1 0x7 DUP8 DUP8 PUSH1 0x40 MLOAD PUSH2 0xF9B SWAP3 SWAP2 SWAP1 PUSH2 0x2022 JUMP JUMPDEST SWAP1 DUP2 MSTORE PUSH1 0x20 ADD PUSH1 0x40 MLOAD DUP1 SWAP2 SUB SWAP1 KECCAK256 SLOAD PUSH1 0x0 EQ PUSH2 0xFCE JUMPI DUP7 DUP7 PUSH1 0x40 MLOAD PUSH4 0x9862FB23 PUSH1 0xE0 SHL DUP2 MSTORE PUSH1 0x4 ADD PUSH2 0x6A2 SWAP3 SWAP2 SWAP1 PUSH2 0x2032 JUMP JUMPDEST PUSH1 0x1 DUP1 SLOAD DUP2 ADD SWAP1 DUP2 SWAP1 SSTORE PUSH1 0x40 DUP1 MLOAD PUSH1 0xC0 DUP2 ADD DUP3 MSTORE DUP3 DUP2 MSTORE PUSH1 0x1 PUSH1 0x1 PUSH1 0xA0 SHL SUB DUP7 AND PUSH1 0x20 DUP1 DUP4 ADD SWAP2 SWAP1 SWAP2 MSTORE DUP3 MLOAD PUSH1 0x1F DUP12 ADD DUP3 SWAP1 DIV DUP3 MUL DUP2 ADD DUP3 ADD DUP5 MSTORE DUP11 DUP2 MSTORE SWAP4 SWAP6 POP SWAP1 SWAP3 SWAP2 DUP4 ADD SWAP2 SWAP1 DUP11 SWAP1 DUP11 SWAP1 DUP2 SWAP1 DUP5 ADD DUP4 DUP3 DUP1 DUP3 DUP5 CALLDATACOPY PUSH1 0x0 SWAP3 ADD SWAP2 SWAP1 SWAP2 MSTORE POP POP POP SWAP1 DUP3 MSTORE POP PUSH1 0x40 DUP1 MLOAD PUSH1 0x20 PUSH1 0x1F DUP10 ADD DUP2 SWAP1 DIV DUP2 MUL DUP3 ADD DUP2 ADD SWAP1 SWAP3 MSTORE DUP8 DUP2 MSTORE SWAP2 DUP2 ADD SWAP2 SWAP1 DUP9 SWAP1 DUP9 SWAP1 DUP2 SWAP1 DUP5 ADD DUP4 DUP3 DUP1 DUP3 DUP5 CALLDATACOPY PUSH1 0x0 SWAP3 ADD DUP3 SWAP1 MSTORE POP SWAP4 DUP6 MSTORE POP POP PUSH1 0x1 PUSH1 0x20 DUP1 DUP6 ADD DUP3 SWAP1 MSTORE PUSH1 0x40 SWAP5 DUP6 ADD DUP5 SWAP1 MSTORE DUP8 DUP5 MSTORE PUSH1 0x4 DUP2 MSTORE SWAP3 DUP5 SWAP1 KECCAK256 DUP6 MLOAD DUP2 SSTORE SWAP3 DUP6 ADD MLOAD SWAP1 DUP4 ADD DUP1 SLOAD PUSH1 0x1 PUSH1 0x1 PUSH1 0xA0 SHL SUB NOT AND PUSH1 0x1 PUSH1 0x1 PUSH1 0xA0 SHL SUB SWAP1 SWAP3 AND SWAP2 SWAP1 SWAP2 OR SWAP1 SSTORE POP SWAP1 DUP3 ADD MLOAD PUSH1 0x2 DUP3 ADD SWAP1 PUSH2 0x10C5 SWAP1 DUP3 PUSH2 0x1EDB JUMP JUMPDEST POP PUSH1 0x60 DUP3 ADD MLOAD PUSH1 0x3 DUP3 ADD SWAP1 PUSH2 0x10DA SWAP1 DUP3 PUSH2 0x1EDB JUMP JUMPDEST POP PUSH1 0x80 DUP3 ADD MLOAD PUSH1 0x4 DUP3 ADD DUP1 SLOAD PUSH1 0xFF NOT AND SWAP2 ISZERO ISZERO SWAP2 SWAP1 SWAP2 OR SWAP1 SSTORE PUSH1 0xA0 SWAP1 SWAP2 ADD MLOAD PUSH1 0x5 SWAP1 SWAP2 ADD SSTORE PUSH1 0x40 MLOAD DUP3 SWAP1 PUSH1 0x7 SWAP1 PUSH2 0x1114 SWAP1 DUP11 SWAP1 DUP11 SWAP1 PUSH2 0x2022 JUMP JUMPDEST SWAP1 DUP2 MSTORE PUSH1 0x20 ADD PUSH1 0x40 MLOAD DUP1 SWAP2 SUB SWAP1 KECCAK256 DUP2 SWAP1 SSTORE POP DUP3 PUSH1 0x1 PUSH1 0x1 PUSH1 0xA0 SHL SUB AND DUP3 PUSH32 0xDC354F56D9A09D7916407E38CD780B18C1228608A7B83C30C7605332CBEE0454 DUP10 DUP10 DUP10 DUP10 PUSH1 0x40 MLOAD PUSH2 0x1166 SWAP5 SWAP4 SWAP3 SWAP2 SWAP1 PUSH2 0x2046 JUMP JUMPDEST PUSH1 0x40 MLOAD DUP1 SWAP2 SUB SWAP1 LOG3 POP SWAP6 SWAP5 POP POP POP POP POP JUMP JUMPDEST PUSH1 0x0 SWAP2 DUP3 MSTORE PUSH1 0x20 DUP3 DUP2 MSTORE PUSH1 0x40 DUP1 DUP5 KECCAK256 PUSH1 0x1 PUSH1 0x1 PUSH1 0xA0 SHL SUB SWAP4 SWAP1 SWAP4 AND DUP5 MSTORE SWAP2 SWAP1 MSTORE SWAP1 KECCAK256 SLOAD PUSH1 0xFF AND SWAP1 JUMP JUMPDEST PUSH2 0x11E3 PUSH1 0x40 MLOAD DUP1 PUSH1 0xE0 ADD PUSH1 0x40 MSTORE DUP1 PUSH1 0x0 DUP2 MSTORE PUSH1 0x20 ADD PUSH1 0x0 DUP2 MSTORE PUSH1 0x20 ADD PUSH1 0x60 DUP2 MSTORE PUSH1 0x20 ADD PUSH1 0x60 DUP2 MSTORE PUSH1 0x20 ADD PUSH1 0x0 DUP2 MSTORE PUSH1 0x20 ADD PUSH1 0x0 DUP2 MSTORE PUSH1 0x20 ADD PUSH1 0x0 ISZERO ISZERO DUP2 MSTORE POP SWAP1 JUMP JUMPDEST PUSH2 0x11EC DUP3 PUSH2 0x1892 JUMP JUMPDEST PUSH1 0x5 PUSH1 0x0 DUP4 DUP2 MSTORE PUSH1 0x20 ADD SWAP1 DUP2 MSTORE PUSH1 0x20 ADD PUSH1 0x0 KECCAK256 PUSH1 0x40 MLOAD DUP1 PUSH1 0xE0 ADD PUSH1 0x40 MSTORE SWAP1 DUP2 PUSH1 0x0 DUP3 ADD SLOAD DUP2 MSTORE PUSH1 0x20 ADD PUSH1 0x1 DUP3 ADD SLOAD DUP2 MSTORE PUSH1 0x20 ADD PUSH1 0x2 DUP3 ADD DUP1 SLOAD PUSH2 0x122E SWAP1 PUSH2 0x1E53 JUMP JUMPDEST DUP1 PUSH1 0x1F ADD PUSH1 0x20 DUP1 SWAP2 DIV MUL PUSH1 0x20 ADD PUSH1 0x40 MLOAD SWAP1 DUP2 ADD PUSH1 0x40 MSTORE DUP1 SWAP3 SWAP2 SWAP1 DUP2 DUP2 MSTORE PUSH1 0x20 ADD DUP3 DUP1 SLOAD PUSH2 0x125A SWAP1 PUSH2 0x1E53 JUMP JUMPDEST DUP1 ISZERO PUSH2 0x12A7 JUMPI DUP1 PUSH1 0x1F LT PUSH2 0x127C JUMPI PUSH2 0x100 DUP1 DUP4 SLOAD DIV MUL DUP4 MSTORE SWAP2 PUSH1 0x20 ADD SWAP2 PUSH2 0x12A7 JUMP JUMPDEST DUP3 ADD SWAP2 SWAP1 PUSH1 0x0 MSTORE PUSH1 0x20 PUSH1 0x0 KECCAK256 SWAP1 JUMPDEST DUP2 SLOAD DUP2 MSTORE SWAP1 PUSH1 0x1 ADD SWAP1 PUSH1 0x20 ADD DUP1 DUP4 GT PUSH2 0x128A JUMPI DUP3 SWAP1 SUB PUSH1 0x1F AND DUP3 ADD SWAP2 JUMPDEST POP POP POP POP POP DUP2 MSTORE PUSH1 0x20 ADD PUSH1 0x3 DUP3 ADD DUP1 SLOAD PUSH2 0x12C0 SWAP1 PUSH2 0x1E53 JUMP JUMPDEST DUP1 PUSH1 0x1F ADD PUSH1 0x20 DUP1 SWAP2 DIV MUL PUSH1 0x20 ADD PUSH1 0x40 MLOAD SWAP1 DUP2 ADD PUSH1 0x40 MSTORE DUP1 SWAP3 SWAP2 SWAP1 DUP2 DUP2 MSTORE PUSH1 0x20 ADD DUP3 DUP1 SLOAD PUSH2 0x12EC SWAP1 PUSH2 0x1E53 JUMP JUMPDEST DUP1 ISZERO PUSH2 0x1339 JUMPI DUP1 PUSH1 0x1F LT PUSH2 0x130E JUMPI PUSH2 0x100 DUP1 DUP4 SLOAD DIV MUL DUP4 MSTORE SWAP2 PUSH1 0x20 ADD SWAP2 PUSH2 0x1339 JUMP JUMPDEST DUP3 ADD SWAP2 SWAP1 PUSH1 0x0 MSTORE PUSH1 0x20 PUSH1 0x0 KECCAK256 SWAP1 JUMPDEST DUP2 SLOAD DUP2 MSTORE SWAP1 PUSH1 0x1 ADD SWAP1 PUSH1 0x20 ADD DUP1 DUP4 GT PUSH2 0x131C JUMPI DUP3 SWAP1 SUB PUSH1 0x1F AND DUP3 ADD SWAP2 JUMPDEST POP POP POP SWAP2 DUP4 MSTORE POP POP PUSH1 0x4 DUP3 ADD SLOAD PUSH1 0x20 DUP3 ADD MSTORE PUSH1 0x5 DUP3 ADD SLOAD PUSH1 0x40 DUP3 ADD MSTORE PUSH1 0x6 SWAP1 SWAP2 ADD SLOAD PUSH1 0xFF AND ISZERO ISZERO PUSH1 0x60 SWAP1 SWAP2 ADD MSTORE SWAP3 SWAP2 POP POP JUMP JUMPDEST PUSH1 0x0 DUP3 DUP2 MSTORE PUSH1 0x20 DUP2 SWAP1 MSTORE PUSH1 0x40 SWAP1 KECCAK256 PUSH1 0x1 ADD SLOAD PUSH2 0x1387 DUP2 PUSH2 0x170D JUMP JUMPDEST PUSH2 0xA7B DUP4 DUP4 PUSH2 0x1827 JUMP JUMPDEST PUSH1 0x0 PUSH2 0x139C DUP3 PUSH2 0x1717 JUMP JUMPDEST POP PUSH1 0x0 SWAP1 DUP2 MSTORE PUSH1 0x9 PUSH1 0x20 MSTORE PUSH1 0x40 SWAP1 KECCAK256 SLOAD SWAP1 JUMP JUMPDEST PUSH1 0x0 PUSH2 0x13B9 PUSH2 0x1748 JUMP JUMPDEST PUSH2 0x13C2 DUP6 PUSH2 0x1717 JUMP JUMPDEST PUSH1 0x0 DUP6 DUP2 MSTORE PUSH1 0x4 PUSH1 0x20 DUP2 SWAP1 MSTORE PUSH1 0x40 SWAP1 SWAP2 KECCAK256 SWAP1 DUP2 ADD SLOAD PUSH1 0xFF AND PUSH2 0x13FA JUMPI PUSH1 0x40 MLOAD PUSH4 0x3CF2D539 PUSH1 0xE2 SHL DUP2 MSTORE PUSH1 0x4 DUP2 ADD DUP8 SWAP1 MSTORE PUSH1 0x24 ADD PUSH2 0x6A2 JUMP JUMPDEST PUSH2 0x1403 DUP6 PUSH2 0x1892 JUMP JUMPDEST PUSH1 0x0 DUP6 DUP2 MSTORE PUSH1 0x5 PUSH1 0x20 MSTORE PUSH1 0x40 SWAP1 KECCAK256 PUSH1 0x6 DUP2 ADD SLOAD PUSH1 0xFF AND PUSH2 0x1439 JUMPI PUSH1 0x40 MLOAD PUSH4 0x48F02ACD PUSH1 0xE0 SHL DUP2 MSTORE PUSH1 0x4 DUP2 ADD DUP8 SWAP1 MSTORE PUSH1 0x24 ADD PUSH2 0x6A2 JUMP JUMPDEST DUP7 DUP2 PUSH1 0x1 ADD SLOAD EQ PUSH2 0x1467 JUMPI PUSH1 0x40 MLOAD PUSH4 0xEA1C5C9F PUSH1 0xE0 SHL DUP2 MSTORE PUSH1 0x4 DUP2 ADD DUP8 SWAP1 MSTORE PUSH1 0x24 DUP2 ADD DUP9 SWAP1 MSTORE PUSH1 0x44 ADD PUSH2 0x6A2 JUMP JUMPDEST DUP1 PUSH1 0x5 ADD SLOAD PUSH1 0x0 SUB PUSH2 0x148F JUMPI PUSH1 0x40 MLOAD PUSH4 0x4A75A83 PUSH1 0xE5 SHL DUP2 MSTORE PUSH1 0x4 DUP2 ADD DUP8 SWAP1 MSTORE PUSH1 0x24 ADD PUSH2 0x6A2 JUMP JUMPDEST DUP1 PUSH1 0x4 ADD SLOAD CALLVALUE EQ PUSH2 0x14BF JUMPI PUSH1 0x4 DUP2 DUP2 ADD SLOAD PUSH1 0x40 MLOAD PUSH4 0xD35E921 PUSH1 0xE0 SHL DUP2 MSTORE SWAP2 DUP3 ADD MSTORE CALLVALUE PUSH1 0x24 DUP3 ADD MSTORE PUSH1 0x44 ADD PUSH2 0x6A2 JUMP JUMPDEST PUSH1 0x5 DUP1 DUP3 ADD DUP1 SLOAD PUSH1 0x0 NOT ADD SWAP1 SSTORE DUP3 ADD DUP1 SLOAD CALLVALUE SWAP1 DUP2 ADD SWAP1 SWAP2 SSTORE PUSH1 0x0 DUP9 DUP2 MSTORE PUSH1 0x9 PUSH1 0x20 SWAP1 DUP2 MSTORE PUSH1 0x40 SWAP2 DUP3 SWAP1 KECCAK256 DUP1 SLOAD DUP5 ADD SWAP1 SSTORE PUSH1 0x3 DUP1 SLOAD PUSH1 0x1 ADD SWAP1 DUP2 SWAP1 SSTORE DUP3 MLOAD PUSH2 0x120 DUP2 ADD DUP5 MSTORE DUP2 DUP2 MSTORE DUP1 DUP4 ADD DUP13 SWAP1 MSTORE DUP1 DUP5 ADD DUP12 SWAP1 MSTORE CALLER PUSH1 0x60 DUP3 ADD MSTORE PUSH1 0x80 DUP2 ADD SWAP5 SWAP1 SWAP5 MSTORE DUP3 MLOAD PUSH1 0x1F DUP10 ADD DUP4 SWAP1 DIV DUP4 MUL DUP2 ADD DUP4 ADD SWAP1 SWAP4 MSTORE DUP8 DUP4 MSTORE SWAP6 POP PUSH1 0xA0 DUP4 ADD SWAP2 SWAP1 DUP9 SWAP1 DUP9 SWAP1 DUP2 SWAP1 DUP5 ADD DUP4 DUP3 DUP1 DUP3 DUP5 CALLDATACOPY PUSH1 0x0 SWAP3 ADD DUP3 SWAP1 MSTORE POP SWAP4 DUP6 MSTORE POP POP POP PUSH1 0x20 DUP1 DUP4 ADD DUP3 SWAP1 MSTORE PUSH1 0x40 DUP1 DUP5 ADD DUP4 SWAP1 MSTORE TIMESTAMP PUSH1 0x60 SWAP5 DUP6 ADD MSTORE DUP8 DUP4 MSTORE PUSH1 0x6 DUP3 MSTORE SWAP2 DUP3 SWAP1 KECCAK256 DUP5 MLOAD DUP2 SSTORE SWAP1 DUP5 ADD MLOAD PUSH1 0x1 DUP3 ADD SSTORE SWAP1 DUP4 ADD MLOAD PUSH1 0x2 DUP3 ADD SSTORE SWAP1 DUP3 ADD MLOAD PUSH1 0x3 DUP3 ADD DUP1 SLOAD PUSH1 0x1 PUSH1 0x1 PUSH1 0xA0 SHL SUB NOT AND PUSH1 0x1 PUSH1 0x1 PUSH1 0xA0 SHL SUB SWAP1 SWAP3 AND SWAP2 SWAP1 SWAP2 OR SWAP1 SSTORE PUSH1 0x80 DUP3 ADD MLOAD PUSH1 0x4 DUP3 ADD SSTORE PUSH1 0xA0 DUP3 ADD MLOAD PUSH1 0x5 DUP3 ADD SWAP1 PUSH2 0x15D4 SWAP1 DUP3 PUSH2 0x1EDB JUMP JUMPDEST POP PUSH1 0xC0 DUP3 ADD MLOAD PUSH1 0x6 DUP3 ADD DUP1 SLOAD PUSH1 0xE0 DUP6 ADD MLOAD PUSH2 0xFFFF NOT SWAP1 SWAP2 AND SWAP3 ISZERO ISZERO PUSH2 0xFF00 NOT AND SWAP3 SWAP1 SWAP3 OR PUSH2 0x100 SWAP3 ISZERO ISZERO DUP4 MUL OR SWAP1 SSTORE SWAP1 SWAP2 ADD MLOAD PUSH1 0x7 SWAP1 SWAP2 ADD SSTORE PUSH1 0x40 MLOAD DUP7 SWAP1 DUP9 SWAP1 DUP6 SWAP1 PUSH32 0x53EF33F7980027601E9C44280F96062AEEE8537323620BFB7C038E8B56F2489F SWAP1 PUSH2 0x1649 SWAP1 CALLER SWAP1 CALLVALUE SWAP1 DUP13 SWAP1 DUP13 SWAP1 PUSH2 0x2078 JUMP JUMPDEST PUSH1 0x40 MLOAD DUP1 SWAP2 SUB SWAP1 LOG4 POP POP PUSH2 0x166A PUSH1 0x1 PUSH1 0x0 DUP1 MLOAD PUSH1 0x20 PUSH2 0x20CB DUP4 CODECOPY DUP2 MLOAD SWAP2 MSTORE SSTORE JUMP JUMPDEST SWAP5 SWAP4 POP POP POP POP JUMP JUMPDEST PUSH1 0x0 DUP1 MLOAD PUSH1 0x20 PUSH2 0x20AB DUP4 CODECOPY DUP2 MLOAD SWAP2 MSTORE PUSH2 0x168A DUP2 PUSH2 0x170D JUMP JUMPDEST PUSH2 0x1693 DUP6 PUSH2 0x1892 JUMP JUMPDEST PUSH1 0x0 DUP6 DUP2 MSTORE PUSH1 0x5 PUSH1 0x20 DUP2 DUP2 MSTORE PUSH1 0x40 SWAP3 DUP4 SWAP1 KECCAK256 PUSH1 0x4 DUP2 ADD DUP9 SWAP1 SSTORE SWAP2 DUP3 ADD DUP7 SWAP1 SSTORE PUSH1 0x6 DUP3 ADD DUP1 SLOAD DUP7 ISZERO ISZERO PUSH1 0xFF NOT SWAP1 SWAP2 AND DUP2 OR SWAP1 SWAP2 SSTORE DUP4 MLOAD DUP9 DUP2 MSTORE SWAP2 DUP3 ADD DUP8 SWAP1 MSTORE DUP2 DUP5 ADD MSTORE SWAP2 MLOAD SWAP1 SWAP2 DUP8 SWAP2 PUSH32 0x24833E9F5188AE0F7E72E30363B10145255676DF1AB74B5137059E1B8E4CBA66 SWAP2 DUP2 SWAP1 SUB PUSH1 0x60 ADD SWAP1 LOG2 POP POP POP POP POP POP JUMP JUMPDEST PUSH2 0x9E8 DUP2 CALLER PUSH2 0x18C3 JUMP JUMPDEST PUSH1 0x0 DUP2 DUP2 MSTORE PUSH1 0x4 PUSH1 0x20 MSTORE PUSH1 0x40 DUP2 KECCAK256 SLOAD SWAP1 SUB PUSH2 0x9E8 JUMPI PUSH1 0x40 MLOAD PUSH4 0x366B30AB PUSH1 0xE1 SHL DUP2 MSTORE PUSH1 0x4 DUP2 ADD DUP3 SWAP1 MSTORE PUSH1 0x24 ADD PUSH2 0x6A2 JUMP JUMPDEST PUSH2 0x1750 PUSH2 0x1900 JUMP JUMPDEST PUSH1 0x2 PUSH1 0x0 DUP1 MLOAD PUSH1 0x20 PUSH2 0x20CB DUP4 CODECOPY DUP2 MLOAD SWAP2 MSTORE SSTORE JUMP JUMPDEST PUSH1 0x0 DUP2 DUP2 MSTORE PUSH1 0x6 PUSH1 0x20 MSTORE PUSH1 0x40 DUP2 KECCAK256 SLOAD SWAP1 SUB PUSH2 0x9E8 JUMPI PUSH1 0x40 MLOAD PUSH4 0xD5F38FAB PUSH1 0xE0 SHL DUP2 MSTORE PUSH1 0x4 DUP2 ADD DUP3 SWAP1 MSTORE PUSH1 0x24 ADD PUSH2 0x6A2 JUMP JUMPDEST PUSH1 0x0 PUSH2 0x17A1 DUP4 DUP4 PUSH2 0x1178 JUMP JUMPDEST PUSH2 0x181F JUMPI PUSH1 0x0 DUP4 DUP2 MSTORE PUSH1 0x20 DUP2 DUP2 MSTORE PUSH1 0x40 DUP1 DUP4 KECCAK256 PUSH1 0x1 PUSH1 0x1 PUSH1 0xA0 SHL SUB DUP7 AND DUP5 MSTORE SWAP1 SWAP2 MSTORE SWAP1 KECCAK256 DUP1 SLOAD PUSH1 0xFF NOT AND PUSH1 0x1 OR SWAP1 SSTORE PUSH2 0x17D7 CALLER SWAP1 JUMP JUMPDEST PUSH1 0x1 PUSH1 0x1 PUSH1 0xA0 SHL SUB AND DUP3 PUSH1 0x1 PUSH1 0x1 PUSH1 0xA0 SHL SUB AND DUP5 PUSH32 0x2F8788117E7EFF1D82E926EC794901D17C78024A50270940304540A733656F0D PUSH1 0x40 MLOAD PUSH1 0x40 MLOAD DUP1 SWAP2 SUB SWAP1 LOG4 POP PUSH1 0x1 PUSH2 0x609 JUMP JUMPDEST POP PUSH1 0x0 PUSH2 0x609 JUMP JUMPDEST PUSH1 0x0 PUSH2 0x1833 DUP4 DUP4 PUSH2 0x1178 JUMP JUMPDEST ISZERO PUSH2 0x181F JUMPI PUSH1 0x0 DUP4 DUP2 MSTORE PUSH1 0x20 DUP2 DUP2 MSTORE PUSH1 0x40 DUP1 DUP4 KECCAK256 PUSH1 0x1 PUSH1 0x1 PUSH1 0xA0 SHL SUB DUP7 AND DUP1 DUP6 MSTORE SWAP3 MSTORE DUP1 DUP4 KECCAK256 DUP1 SLOAD PUSH1 0xFF NOT AND SWAP1 SSTORE MLOAD CALLER SWAP3 DUP7 SWAP2 PUSH32 0xF6391F5C32D9C69D2A47EA670B442974B53935D1EDC7FD64EB21E047A839171B SWAP2 SWAP1 LOG4 POP PUSH1 0x1 PUSH2 0x609 JUMP JUMPDEST PUSH1 0x0 DUP2 DUP2 MSTORE PUSH1 0x5 PUSH1 0x20 MSTORE PUSH1 0x40 DUP2 KECCAK256 SLOAD SWAP1 SUB PUSH2 0x9E8 JUMPI PUSH1 0x40 MLOAD PUSH4 0x92691CAB PUSH1 0xE0 SHL DUP2 MSTORE PUSH1 0x4 DUP2 ADD DUP3 SWAP1 MSTORE PUSH1 0x24 ADD PUSH2 0x6A2 JUMP JUMPDEST PUSH2 0x18CD DUP3 DUP3 PUSH2 0x1178 JUMP JUMPDEST PUSH2 0x18FC JUMPI PUSH1 0x40 MLOAD PUSH4 0xE2517D3F PUSH1 0xE0 SHL DUP2 MSTORE PUSH1 0x1 PUSH1 0x1 PUSH1 0xA0 SHL SUB DUP3 AND PUSH1 0x4 DUP3 ADD MSTORE PUSH1 0x24 DUP2 ADD DUP4 SWAP1 MSTORE PUSH1 0x44 ADD PUSH2 0x6A2 JUMP JUMPDEST POP POP JUMP JUMPDEST PUSH1 0x0 DUP1 MLOAD PUSH1 0x20 PUSH2 0x20CB DUP4 CODECOPY DUP2 MLOAD SWAP2 MSTORE SLOAD PUSH1 0x2 SUB PUSH2 0x1930 JUMPI PUSH1 0x40 MLOAD PUSH4 0x3EE5AEB5 PUSH1 0xE0 SHL DUP2 MSTORE PUSH1 0x4 ADD PUSH1 0x40 MLOAD DUP1 SWAP2 SUB SWAP1 REVERT JUMPDEST JUMP JUMPDEST PUSH1 0x0 DUP1 DUP4 PUSH1 0x1F DUP5 ADD SLT PUSH2 0x1944 JUMPI PUSH1 0x0 DUP1 REVERT JUMPDEST POP DUP2 CALLDATALOAD PUSH8 0xFFFFFFFFFFFFFFFF DUP2 GT ISZERO PUSH2 0x195C JUMPI PUSH1 0x0 DUP1 REVERT JUMPDEST PUSH1 0x20 DUP4 ADD SWAP2 POP DUP4 PUSH1 0x20 DUP3 DUP6 ADD ADD GT ISZERO PUSH2 0x1974 JUMPI PUSH1 0x0 DUP1 REVERT JUMPDEST SWAP3 POP SWAP3 SWAP1 POP JUMP JUMPDEST PUSH1 0x0 DUP1 PUSH1 0x0 DUP1 PUSH1 0x0 DUP1 PUSH1 0x0 PUSH1 0xA0 DUP9 DUP11 SUB SLT ISZERO PUSH2 0x1996 JUMPI PUSH1 0x0 DUP1 REVERT JUMPDEST DUP8 CALLDATALOAD SWAP7 POP PUSH1 0x20 DUP9 ADD CALLDATALOAD PUSH8 0xFFFFFFFFFFFFFFFF DUP1 DUP3 GT ISZERO PUSH2 0x19B5 JUMPI PUSH1 0x0 DUP1 REVERT JUMPDEST PUSH2 0x19C1 DUP12 DUP4 DUP13 ADD PUSH2 0x1932 JUMP JUMPDEST SWAP1 SWAP9 POP SWAP7 POP PUSH1 0x40 DUP11 ADD CALLDATALOAD SWAP2 POP DUP1 DUP3 GT ISZERO PUSH2 0x19DA JUMPI PUSH1 0x0 DUP1 REVERT JUMPDEST POP PUSH2 0x19E7 DUP11 DUP3 DUP12 ADD PUSH2 0x1932 JUMP JUMPDEST SWAP9 SWAP12 SWAP8 SWAP11 POP SWAP6 SWAP9 SWAP6 SWAP8 SWAP7 PUSH1 0x60 DUP8 ADD CALLDATALOAD SWAP7 PUSH1 0x80 ADD CALLDATALOAD SWAP6 POP SWAP4 POP POP POP POP JUMP JUMPDEST PUSH1 0x0 PUSH1 0x20 DUP3 DUP5 SUB SLT ISZERO PUSH2 0x1A16 JUMPI PUSH1 0x0 DUP1 REVERT JUMPDEST DUP2 CALLDATALOAD PUSH1 0x1 PUSH1 0x1 PUSH1 0xE0 SHL SUB NOT DUP2 AND DUP2 EQ PUSH2 0x1A2E JUMPI PUSH1 0x0 DUP1 REVERT JUMPDEST SWAP4 SWAP3 POP POP POP JUMP JUMPDEST PUSH1 0x1 PUSH1 0x1 PUSH1 0xA0 SHL SUB DUP2 AND DUP2 EQ PUSH2 0x9E8 JUMPI PUSH1 0x0 DUP1 REVERT JUMPDEST PUSH1 0x0 DUP1 PUSH1 0x0 PUSH1 0x60 DUP5 DUP7 SUB SLT ISZERO PUSH2 0x1A5F JUMPI PUSH1 0x0 DUP1 REVERT JUMPDEST DUP4 CALLDATALOAD SWAP3 POP PUSH1 0x20 DUP5 ADD CALLDATALOAD PUSH2 0x1A71 DUP2 PUSH2 0x1A35 JUMP JUMPDEST SWAP3 SWAP6 SWAP3 SWAP5 POP POP POP PUSH1 0x40 SWAP2 SWAP1 SWAP2 ADD CALLDATALOAD SWAP1 JUMP JUMPDEST PUSH1 0x0 PUSH1 0x20 DUP3 DUP5 SUB SLT ISZERO PUSH2 0x1A94 JUMPI PUSH1 0x0 DUP1 REVERT JUMPDEST POP CALLDATALOAD SWAP2 SWAP1 POP JUMP JUMPDEST PUSH1 0x20 DUP1 DUP3 MSTORE DUP3 MLOAD DUP3 DUP3 ADD DUP2 SWAP1 MSTORE PUSH1 0x0 SWAP2 SWAP1 DUP5 DUP3 ADD SWAP1 PUSH1 0x40 DUP6 ADD SWAP1 DUP5 JUMPDEST DUP2 DUP2 LT ISZERO PUSH2 0x1AD3 JUMPI DUP4 MLOAD DUP4 MSTORE SWAP3 DUP5 ADD SWAP3 SWAP2 DUP5 ADD SWAP2 PUSH1 0x1 ADD PUSH2 0x1AB7 JUMP JUMPDEST POP SWAP1 SWAP7 SWAP6 POP POP POP POP POP POP JUMP JUMPDEST PUSH1 0x0 DUP1 PUSH1 0x40 DUP4 DUP6 SUB SLT ISZERO PUSH2 0x1AF2 JUMPI PUSH1 0x0 DUP1 REVERT JUMPDEST DUP3 CALLDATALOAD SWAP2 POP PUSH1 0x20 DUP4 ADD CALLDATALOAD PUSH2 0x1B04 DUP2 PUSH2 0x1A35 JUMP JUMPDEST DUP1 SWAP2 POP POP SWAP3 POP SWAP3 SWAP1 POP JUMP JUMPDEST PUSH1 0x0 DUP2 MLOAD DUP1 DUP5 MSTORE PUSH1 0x0 JUMPDEST DUP2 DUP2 LT ISZERO PUSH2 0x1B35 JUMPI PUSH1 0x20 DUP2 DUP6 ADD DUP2 ADD MLOAD DUP7 DUP4 ADD DUP3 ADD MSTORE ADD PUSH2 0x1B19 JUMP JUMPDEST POP PUSH1 0x0 PUSH1 0x20 DUP3 DUP7 ADD ADD MSTORE PUSH1 0x20 PUSH1 0x1F NOT PUSH1 0x1F DUP4 ADD AND DUP6 ADD ADD SWAP2 POP POP SWAP3 SWAP2 POP POP JUMP JUMPDEST PUSH1 0x20 DUP2 MSTORE DUP2 MLOAD PUSH1 0x20 DUP3 ADD MSTORE PUSH1 0x20 DUP3 ADD MLOAD PUSH1 0x40 DUP3 ADD MSTORE PUSH1 0x40 DUP3 ADD MLOAD PUSH1 0x60 DUP3 ADD MSTORE PUSH1 0x0 PUSH1 0x60 DUP4 ADD MLOAD PUSH2 0x1B90 PUSH1 0x80 DUP5 ADD DUP3 PUSH1 0x1 PUSH1 0x1 PUSH1 0xA0 SHL SUB AND SWAP1 MSTORE JUMP JUMPDEST POP PUSH1 0x80 DUP4 ADD MLOAD PUSH1 0xA0 DUP4 ADD MSTORE PUSH1 0xA0 DUP4 ADD MLOAD PUSH2 0x120 DUP1 PUSH1 0xC0 DUP6 ADD MSTORE PUSH2 0x1BB7 PUSH2 0x140 DUP6 ADD DUP4 PUSH2 0x1B0F JUMP JUMPDEST SWAP2 POP PUSH1 0xC0 DUP6 ADD MLOAD PUSH2 0x1BCC PUSH1 0xE0 DUP7 ADD DUP3 ISZERO ISZERO SWAP1 MSTORE JUMP JUMPDEST POP PUSH1 0xE0 DUP6 ADD MLOAD PUSH2 0x100 PUSH2 0x1BE2 DUP2 DUP8 ADD DUP4 ISZERO ISZERO SWAP1 MSTORE JUMP JUMPDEST SWAP6 SWAP1 SWAP6 ADD MLOAD SWAP4 ADD SWAP3 SWAP1 SWAP3 MSTORE POP SWAP2 SWAP1 POP JUMP JUMPDEST DUP1 CALLDATALOAD DUP1 ISZERO ISZERO DUP2 EQ PUSH2 0x1C03 JUMPI PUSH1 0x0 DUP1 REVERT JUMPDEST SWAP2 SWAP1 POP JUMP JUMPDEST PUSH1 0x0 DUP1 PUSH1 0x40 DUP4 DUP6 SUB SLT ISZERO PUSH2 0x1C1B JUMPI PUSH1 0x0 DUP1 REVERT JUMPDEST DUP3 CALLDATALOAD SWAP2 POP PUSH2 0x1C2B PUSH1 0x20 DUP5 ADD PUSH2 0x1BF3 JUMP JUMPDEST SWAP1 POP SWAP3 POP SWAP3 SWAP1 POP JUMP JUMPDEST PUSH1 0x20 DUP2 MSTORE DUP2 MLOAD PUSH1 0x20 DUP3 ADD MSTORE PUSH1 0x1 DUP1 PUSH1 0xA0 SHL SUB PUSH1 0x20 DUP4 ADD MLOAD AND PUSH1 0x40 DUP3 ADD MSTORE PUSH1 0x0 PUSH1 0x40 DUP4 ADD MLOAD PUSH1 0xC0 PUSH1 0x60 DUP5 ADD MSTORE PUSH2 0x1C6C PUSH1 0xE0 DUP5 ADD DUP3 PUSH2 0x1B0F JUMP JUMPDEST SWAP1 POP PUSH1 0x60 DUP5 ADD MLOAD PUSH1 0x1F NOT DUP5 DUP4 SUB ADD PUSH1 0x80 DUP6 ADD MSTORE PUSH2 0x1C89 DUP3 DUP3 PUSH2 0x1B0F JUMP JUMPDEST SWAP2 POP POP PUSH1 0x80 DUP5 ADD MLOAD ISZERO ISZERO PUSH1 0xA0 DUP5 ADD MSTORE PUSH1 0xA0 DUP5 ADD MLOAD PUSH1 0xC0 DUP5 ADD MSTORE DUP1 SWAP2 POP POP SWAP3 SWAP2 POP POP JUMP JUMPDEST PUSH1 0x0 DUP1 PUSH1 0x0 DUP1 PUSH1 0x0 PUSH1 0x60 DUP7 DUP9 SUB SLT ISZERO PUSH2 0x1CC4 JUMPI PUSH1 0x0 DUP1 REVERT JUMPDEST DUP6 CALLDATALOAD PUSH8 0xFFFFFFFFFFFFFFFF DUP1 DUP3 GT ISZERO PUSH2 0x1CDC JUMPI PUSH1 0x0 DUP1 REVERT JUMPDEST PUSH2 0x1CE8 DUP10 DUP4 DUP11 ADD PUSH2 0x1932 JUMP JUMPDEST SWAP1 SWAP8 POP SWAP6 POP PUSH1 0x20 DUP9 ADD CALLDATALOAD SWAP2 POP DUP1 DUP3 GT ISZERO PUSH2 0x1D01 JUMPI PUSH1 0x0 DUP1 REVERT JUMPDEST POP PUSH2 0x1D0E DUP9 DUP3 DUP10 ADD PUSH2 0x1932 JUMP JUMPDEST SWAP1 SWAP5 POP SWAP3 POP POP PUSH1 0x40 DUP7 ADD CALLDATALOAD PUSH2 0x1D22 DUP2 PUSH2 0x1A35 JUMP JUMPDEST DUP1 SWAP2 POP POP SWAP3 SWAP6 POP SWAP3 SWAP6 SWAP1 SWAP4 POP JUMP JUMPDEST PUSH1 0x20 DUP2 MSTORE DUP2 MLOAD PUSH1 0x20 DUP3 ADD MSTORE PUSH1 0x20 DUP3 ADD MLOAD PUSH1 0x40 DUP3 ADD MSTORE PUSH1 0x0 PUSH1 0x40 DUP4 ADD MLOAD PUSH1 0xE0 PUSH1 0x60 DUP5 ADD MSTORE PUSH2 0x1D61 PUSH2 0x100 DUP5 ADD DUP3 PUSH2 0x1B0F JUMP JUMPDEST SWAP1 POP PUSH1 0x60 DUP5 ADD MLOAD PUSH1 0x1F NOT DUP5 DUP4 SUB ADD PUSH1 0x80 DUP6 ADD MSTORE PUSH2 0x1D7E DUP3 DUP3 PUSH2 0x1B0F JUMP JUMPDEST SWAP2 POP POP PUSH1 0x80 DUP5 ADD MLOAD PUSH1 0xA0 DUP5 ADD MSTORE PUSH1 0xA0 DUP5 ADD MLOAD PUSH1 0xC0 DUP5 ADD MSTORE PUSH1 0xC0 DUP5 ADD MLOAD ISZERO ISZERO PUSH1 0xE0 DUP5 ADD MSTORE DUP1 SWAP2 POP POP SWAP3 SWAP2 POP POP JUMP JUMPDEST PUSH1 0x0 DUP1 PUSH1 0x0 DUP1 PUSH1 0x60 DUP6 DUP8 SUB SLT ISZERO PUSH2 0x1DC1 JUMPI PUSH1 0x0 DUP1 REVERT JUMPDEST DUP5 CALLDATALOAD SWAP4 POP PUSH1 0x20 DUP6 ADD CALLDATALOAD SWAP3 POP PUSH1 0x40 DUP6 ADD CALLDATALOAD PUSH8 0xFFFFFFFFFFFFFFFF DUP2 GT ISZERO PUSH2 0x1DE6 JUMPI PUSH1 0x0 DUP1 REVERT JUMPDEST PUSH2 0x1DF2 DUP8 DUP3 DUP9 ADD PUSH2 0x1932 JUMP JUMPDEST SWAP6 SWAP9 SWAP5 SWAP8 POP SWAP6 POP POP POP POP JUMP JUMPDEST PUSH1 0x0 DUP1 PUSH1 0x0 DUP1 PUSH1 0x80 DUP6 DUP8 SUB SLT ISZERO PUSH2 0x1E14 JUMPI PUSH1 0x0 DUP1 REVERT JUMPDEST DUP5 CALLDATALOAD SWAP4 POP PUSH1 0x20 DUP6 ADD CALLDATALOAD SWAP3 POP PUSH1 0x40 DUP6 ADD CALLDATALOAD SWAP2 POP PUSH2 0x1E32 PUSH1 0x60 DUP7 ADD PUSH2 0x1BF3 JUMP JUMPDEST SWAP1 POP SWAP3 SWAP6 SWAP2 SWAP5 POP SWAP3 POP JUMP JUMPDEST PUSH4 0x4E487B71 PUSH1 0xE0 SHL PUSH1 0x0 MSTORE PUSH1 0x41 PUSH1 0x4 MSTORE PUSH1 0x24 PUSH1 0x0 REVERT JUMPDEST PUSH1 0x1 DUP2 DUP2 SHR SWAP1 DUP3 AND DUP1 PUSH2 0x1E67 JUMPI PUSH1 0x7F DUP3 AND SWAP2 POP JUMPDEST PUSH1 0x20 DUP3 LT DUP2 SUB PUSH2 0x1E87 JUMPI PUSH4 0x4E487B71 PUSH1 0xE0 SHL PUSH1 0x0 MSTORE PUSH1 0x22 PUSH1 0x4 MSTORE PUSH1 0x24 PUSH1 0x0 REVERT JUMPDEST POP SWAP2 SWAP1 POP JUMP JUMPDEST PUSH1 0x1F DUP3 GT ISZERO PUSH2 0x806 JUMPI PUSH1 0x0 DUP2 DUP2 MSTORE PUSH1 0x20 DUP2 KECCAK256 PUSH1 0x1F DUP6 ADD PUSH1 0x5 SHR DUP2 ADD PUSH1 0x20 DUP7 LT ISZERO PUSH2 0x1EB4 JUMPI POP DUP1 JUMPDEST PUSH1 0x1F DUP6 ADD PUSH1 0x5 SHR DUP3 ADD SWAP2 POP JUMPDEST DUP2 DUP2 LT ISZERO PUSH2 0x1ED3 JUMPI DUP3 DUP2 SSTORE PUSH1 0x1 ADD PUSH2 0x1EC0 JUMP JUMPDEST POP POP POP POP POP POP JUMP JUMPDEST DUP2 MLOAD PUSH8 0xFFFFFFFFFFFFFFFF DUP2 GT ISZERO PUSH2 0x1EF5 JUMPI PUSH2 0x1EF5 PUSH2 0x1E3D JUMP JUMPDEST PUSH2 0x1F09 DUP2 PUSH2 0x1F03 DUP5 SLOAD PUSH2 0x1E53 JUMP JUMPDEST DUP5 PUSH2 0x1E8D JUMP JUMPDEST PUSH1 0x20 DUP1 PUSH1 0x1F DUP4 GT PUSH1 0x1 DUP2 EQ PUSH2 0x1F3E JUMPI PUSH1 0x0 DUP5 ISZERO PUSH2 0x1F26 JUMPI POP DUP6 DUP4 ADD MLOAD JUMPDEST PUSH1 0x0 NOT PUSH1 0x3 DUP7 SWAP1 SHL SHR NOT AND PUSH1 0x1 DUP6 SWAP1 SHL OR DUP6 SSTORE PUSH2 0x1ED3 JUMP JUMPDEST PUSH1 0x0 DUP6 DUP2 MSTORE PUSH1 0x20 DUP2 KECCAK256 PUSH1 0x1F NOT DUP7 AND SWAP2 JUMPDEST DUP3 DUP2 LT ISZERO PUSH2 0x1F6D JUMPI DUP9 DUP7 ADD MLOAD DUP3 SSTORE SWAP5 DUP5 ADD SWAP5 PUSH1 0x1 SWAP1 SWAP2 ADD SWAP1 DUP5 ADD PUSH2 0x1F4E JUMP JUMPDEST POP DUP6 DUP3 LT ISZERO PUSH2 0x1F8B JUMPI DUP8 DUP6 ADD MLOAD PUSH1 0x0 NOT PUSH1 0x3 DUP9 SWAP1 SHL PUSH1 0xF8 AND SHR NOT AND DUP2 SSTORE JUMPDEST POP POP POP POP POP PUSH1 0x1 SWAP1 DUP2 SHL ADD SWAP1 SSTORE POP JUMP JUMPDEST DUP2 DUP4 MSTORE DUP2 DUP2 PUSH1 0x20 DUP6 ADD CALLDATACOPY POP PUSH1 0x0 DUP3 DUP3 ADD PUSH1 0x20 SWAP1 DUP2 ADD SWAP2 SWAP1 SWAP2 MSTORE PUSH1 0x1F SWAP1 SWAP2 ADD PUSH1 0x1F NOT AND SWAP1 SWAP2 ADD ADD SWAP1 JUMP JUMPDEST PUSH1 0x80 DUP2 MSTORE PUSH1 0x0 PUSH2 0x1FD8 PUSH1 0x80 DUP4 ADD DUP9 DUP11 PUSH2 0x1F9B JUMP JUMPDEST DUP3 DUP2 SUB PUSH1 0x20 DUP5 ADD MSTORE PUSH2 0x1FEB DUP2 DUP8 DUP10 PUSH2 0x1F9B JUMP JUMPDEST PUSH1 0x40 DUP5 ADD SWAP6 SWAP1 SWAP6 MSTORE POP POP PUSH1 0x60 ADD MSTORE SWAP5 SWAP4 POP POP POP POP JUMP JUMPDEST DUP2 DUP2 SUB DUP2 DUP2 GT ISZERO PUSH2 0x609 JUMPI PUSH4 0x4E487B71 PUSH1 0xE0 SHL PUSH1 0x0 MSTORE PUSH1 0x11 PUSH1 0x4 MSTORE PUSH1 0x24 PUSH1 0x0 REVERT JUMPDEST DUP2 DUP4 DUP3 CALLDATACOPY PUSH1 0x0 SWAP2 ADD SWAP1 DUP2 MSTORE SWAP2 SWAP1 POP JUMP JUMPDEST PUSH1 0x20 DUP2 MSTORE PUSH1 0x0 PUSH2 0x166A PUSH1 0x20 DUP4 ADD DUP5 DUP7 PUSH2 0x1F9B JUMP JUMPDEST PUSH1 0x40 DUP2 MSTORE PUSH1 0x0 PUSH2 0x205A PUSH1 0x40 DUP4 ADD DUP7 DUP9 PUSH2 0x1F9B JUMP JUMPDEST DUP3 DUP2 SUB PUSH1 0x20 DUP5 ADD MSTORE PUSH2 0x206D DUP2 DUP6 DUP8 PUSH2 0x1F9B JUMP JUMPDEST SWAP8 SWAP7 POP POP POP POP POP POP POP JUMP JUMPDEST PUSH1 0x1 DUP1 PUSH1 0xA0 SHL SUB DUP6 AND DUP2 MSTORE DUP4 PUSH1 0x20 DUP3 ADD MSTORE PUSH1 0x60 PUSH1 0x40 DUP3 ADD MSTORE PUSH1 0x0 PUSH2 0x20A0 PUSH1 0x60 DUP4 ADD DUP5 DUP7 PUSH2 0x1F9B JUMP JUMPDEST SWAP7 SWAP6 POP POP POP POP POP POP JUMP INVALID SWAP8 PUSH7 0x7070C54EF182B0 CREATE2 DUP6 DUP12 SUB 0x4B 0xEA 0xC1 0xB6 RETURN ADDMOD SWAP11 LOG2 0xD3 XOR DUP12 0xB1 0xE8 SWAP3 SWAP16 0x4F 0xA9 0xB9 0x29 SWAP12 PUSH24 0x9B17422D0DF92223018B32B4D1FA46E071723D6817E2486D STOP EXTCODESIZE 0xEC 0xC5 PUSH0 STOP LOG2 PUSH5 0x6970667358 0x22 SLT KECCAK256 SWAP14 SWAP14 PUSH26 0xCF329765E3557F1117272189F6DF7BBE9343C505EC0AF58A9763 PUSH7 0xCC7F64736F6C63 NUMBER STOP ADDMOD EQ STOP CALLER "},"methodIdentifiers":{"DEFAULT_ADMIN_ROLE()":"a217fddf","OPERATOR_ROLE()":"f5b541a6","addProduct(uint256,string,string,uint256,uint256)":"01db5b48","confirmDispense(uint256)":"3f5524be","getMachine(uint256)":"6d3fac54","getMachineRevenue(uint256)":"eb4a39e0","getProduct(uint256)":"b9db15b4","getProductsByMachine(uint256)":"1eaed063","getPurchase(uint256)":"3742a9f7","getRoleAdmin(bytes32)":"248a9ca3","grantRole(bytes32,address)":"2f2ff15d","hasRole(bytes32,address)":"91d14854","purchaseProduct(uint256,uint256,string)":"eb64d579","refundPurchase(uint256)":"1c77b27a","registerMachine(string,string,address)":"890a10b7","renounceRole(bytes32,address)":"36568abe","revokeRole(bytes32,address)":"d547741f","supportsInterface(bytes4)":"01ffc9a7","updateMachineStatus(uint256,bool)":"6a3341d3","updateProduct(uint256,uint256,uint256,bool)":"faaac390","withdrawMachineRevenue(uint256,address,uint256)":"0634a223"}}}}}